:020000041000EA
:1000000000B5324B212058609868022188439860DF
:10001000D860186158612E4B002199600221596106
:100020000121F02299502B49196001219960352056
:1000300000F044F80222904214D00621196600F024
:1000400034F8196E01211966002018661A6600F04E
:100050002CF8196E196E196E052000F02FF8012189
:100060000842F9D1002199601B49196000215960AB
:100070001A491B48016001219960EB211966A021F2
:10008000196600F012F800219960164914480160C1
:100090000121996001BC002800D000471248134993
:1000A000086003C880F30888084703B5996A0420EC
:1000B0000142FBD001200142F8D103BD02B5186610
:1000C0001866FFF7F2FF186E186E02BD00000240BE
:1000D000000000180000070000035F00212200005C
:1000E000F4000018222000A00001001008ED00E03C
:1000F00000000000000000000000000074B24E7A12
:1001000000200420F7010010C3010010C5010010F9
:10011000C1010010C1010010C1010010C101001097
:10012000C1010010C1010010C1010010C701001081
:10013000C1010010C1010010C9010010CB01001065
:10014000CD010010CD010010CD010010CD01001037
:10015000CD010010CD010010CD010010CD01001027
:10016000CD010010CD010010CD010010CD01001017
:10017000CD010010CD010010CD010010CD01001007
:10018000CD010010CD010010CD010010CD010010F7
:10019000CD010010CD010010CD010010CD010010E7
:1001A000CD010010CD010010CD010010CD010010D7
:1001B000CD010010CD010010CD010010CD010010C7
:1001C00000BE00BE00BE00BE00BE00BEEFF3058054
:1001D000103800BEF2EB8871587500107875001069
:1001E0003402001090A31AE700201F49086006C8D7
:1001F00081F3088810471D48006800282FD10DA4FE
:100200000ECC002902D000F012F8F9E71849194A7B
:10021000002000E001C19142FCD1174988471749ED
:1002200088471749884700BEFDE701C901C29A42C5
:10023000FBD3704778750010C0000020B42D00205B
:100240006CA2001000000420000004206CA200102A
:10025000001004200010042000000000704709482E
:1002600002F08EF80047000008ED00E0000000D02A
:10027000B82D0020AC3B0020B9210010450700102C
:10028000ED2200105756000006005250ABB36053E9
:10029000646E001006005250861C0302746E00103B
:1002A000060052505422A29D886E00100500525044
:1002B000DE65F4686CA20010F8B5C0460448054B32
:1002C00010B5834203D0044B002B00D0984710BDDB
:1002D000B42D0020B42D002000000000064807497E
:1002E000091A8B10C90FC91810B5491003D0044B57
:1002F000002B00D0984710BDB42D0020B42D002055
:100300000000000010B5074C2378002B09D1FFF73F
:10031000D5FF054B002B02D0044800E000BF0123AD
:10032000237010BDC030002000000000886D001058
:10033000054B10B5002B03D00449054800E000BF71
:10034000FFF7CCFF10BDC04600000000C430002005
:10035000886D001010B504000B689847200010BD90
:10036000012A03D0022A03D0002070470160FBE776
:100370000B680360F8E7C046F0B557464E46454661
:10038000DE46E0B589B004ABDF1C9E1C574B05ADC3
:100390009A46D0231B06994606AC1120002101F095
:1003A00023F9FF233B70C046C046C046DF3B98465A
:1003B0004B4642469A61C046C046C04601233200C1
:1003C00039004B4806F088FCC046C046C0464B4644
:1003D00042465A61C046C046C04633785B06DCD50B
:1003E00061232B70C046C046C0464B469A61C0464A
:1003F000C046C0463E4829001F3A06F05DFC08236F
:10040000220000213A4806F0E7FBC046C046C0463D
:100410004B4642465A61C046C046C046354B2B80CB
:10042000C046C046C0464B469A61C046C046C0461C
:100430002F4829001E3A06F03FFCC046C046C04681
:100440004B4642465A61C046C046C046A378E27950
:100450009846E37861799C46A3790392029302233C
:1004600022780191D1071340C90F0B430421114099
:100470001943082313400B4310210A4013436278A9
:100480002079D107C90D0B439107C90F49020B43CE
:100490005107C90F89020B431107C90FC9020B434A
:1004A000D106C90F09030B439106C90F49030B433A
:1004B00051465206D20F920313430A880E49013067
:1004C0000A4051461A430A8041464B1C51468B70E4
:1004D00061464B1C514608715046CB700199029BF6
:1004E000039A013141718371C27156E734310020A2
:1004F00000C0034027700000E080FFFF70B582B0AD
:100500006A46894B1380C046C046C046D024202589
:100510002406A561C046C046C046844E02226946F4
:10052000300006F0C9FBC046C046C0466561C04603
:10053000C046C04621236A461380C046C046C04616
:10054000A561C046C046C04602226946300006F09A
:10055000B3FBC046C046C0466561C046C046C04603
:1005600091236A465B001380C046C046C046A56121
:10057000C046C046C04602226946300006F09CFBD9
:10058000C046C046C0466561C046C046C04624233A
:100590006A46FF331380C046C046C046A561C046C8
:1005A000C046C04602226946300006F085FBC046C0
:1005B000C046C0466561C046C046C04624236A4660
:1005C0001380C046C046C046A561C046C046C0466E
:1005D00002226946300006F06FFBC046C046C046A6
:1005E0006561C046C046C0466A46514B1380C0464E
:1005F000C046C046A561C046C046C0460222694604
:10060000300006F059FBC046C046C0466561C04692
:10061000C046C04626236A461380C046C046C04630
:10062000A561C046C046C04602226946300006F0B9
:1006300043FBC046C046C0466561C046C046C04692
:100640006A463C4B1380C046C046C046A561C046C2
:10065000C046C04602226946300006F02DFBC04667
:10066000C046C0466561C046C046C0466A46324B79
:100670000093324B9380C046C046C046A561C04639
:10068000C046C04606226946300006F015FBC0464B
:10069000C046C0466561C046C046C0466A46284B53
:1006A0001380C046C046C046A561C046C046C0468D
:1006B00002226946300006F0FFFAC046C046C04636
:1006C0006561C046C046C0463C236A461380C046AA
:1006D000C046C046A561C046C046C0460222694623
:1006E000300006F0E9FAC046C046C0466561C04623
:1006F000C046C0463E236A46FF331380C046C0460C
:10070000C046A561C046C046C046022269463000C8
:1007100006F0D2FAC046C046C0466561C046C04633
:10072000C04602B070BDC0462039000000C0034082
:10073000251F0000277000002A4A414B4B4B000048
:100740003108000070B584B002F0E0F8192000F024
:1007500093F8D0248023802620259B0424066362FE
:100760001C20760500F088F80520666200F084F809
:1007700022496562224804F049FB0121022000F071
:100780004BF80121032000F047F80121042000F07C
:1007900043F86561FFF7B2FE6A461A4B1380C04604
:1007A000C046C046A561C046C046C0460222694652
:1007B000134806F081FAC046C046C0466561C0468F
:1007C000C046C04696206661400000F01FFF0E48FC
:1007D00004F04CFA0D4B694600930D4B1B2003931C
:1007E0000C4B029306F010FA029B002B03D003225D
:1007F000694668469847002004B070BD809698000E
:1008000000C00340203B0000790300105905002080
:100810005503001061030010094A830094464022EA
:10082000634410B51C68C0006240C024144080229C
:10083000520113431C60034B9C466044416010BD51
:1008400004C00140004001400A4B80009C46042344
:100850006044002901D00C230821002A00D10B009C
:10086000026853400C221A4080235B011843026047
:100870007047C04604C001400123D02283401206C5
:1008800093629361094A8300944640226344196845
:10089000C0004A40C0211140802252011343196018
:1008A000034B9C46052360444360704704C00140ED
:1008B00000400140024B18688007C00F7047C046D7
:1008C00000C00640EFF3108072B6034A1368002B95
:1008D000FCD0BFF35F8F70472C0100D0BFF35F8F58
:1008E0000022024B1A6080F3108870472C0100D060
:1008F00070B5EFF3108C72B60D4D2B68002BFCD049
:10090000BFF35F8F0724CB08C618C05C01230C40DF
:10091000A3401C000440034207D103433370BFF3DC
:100920005F8F2C608CF3108870BD100001F0E2FC2A
:100930002C0100D0F8B54746CE46884680B5EFF387
:10094000108C72B6214D2C68002CFCD0BFF35F8F49
:100950009A422CD8D4080727055D061901241740B0
:10096000BC402C421FD007210127894609E0D4084A
:10097000055D06194C4639001440A1400C0029427F
:1009800011D001329342F2D201204042BFF35F8F77
:1009900000220E4B1A608CF3108800280FDBC0BCBD
:1009A000B946B046F8BD2C4310003470EEE7BFF3F3
:1009B0005F8F00232B608CF3108801204042434658
:1009C000002BECD0089801F095FCC0462C0100D01B
:1009D0000021044B044ABFF35F8F02C39342FAD154
:1009E0007047C046000100D0800100D0044A107852
:1009F000431CDBB2172B00D9102313707047C0467D
:100A00006824002000B5054B83B001000093182234
:100A10001F230348FFF78EFF03B000BDC06D001019
:100A2000A036002001238340002904D0034A13602C
:100A3000034A13607047034A1360FBE780E200E05B
:100A400000E100E080E100E001228240034B1B68EE
:100A500013405A1E9341D8B27047C04600E100E0EF
:100A600001238340014A13607047C04600E200E062
:100A7000084B10309B688000C358002B07D0064AF3
:100A800000209B1A2F229A424041C0B2704700209A
:100A9000FCE7C04600ED00E06C240020024B103063
:100AA0009B688000C058704700ED00E070B50D00F5
:100AB000EFF3108672B60F4A1368002BFCD0BFF319
:100AC0005F8F0D4B10309B6884001B590B4A93427B
:100AD00003D09D4201D001F025FC074B9B681D51BE
:100AE000BFF35F8FBFF35F8F0022024B1A6086F364
:100AF000108870BD240100D000ED00E0CD01001091
:100B0000F0B557464E46DE464546E0B585B0060090
:100B100002911700EFF3108B72B6674A1368002B2F
:100B2000FCD0BFF35F8F0025644B5D579A46002DC4
:100B300000DAA4E06B00624C03935B199B009846BB
:100B4000A146C1444B4652469B79103613705D4B0B
:100B5000B2009B68019299580B1B2F2B34D95A4B2A
:100B6000994200D0A4E0039B584A9C46584B6544E8
:100B7000AD006353434602336519E418554B012118
:100B8000043B1B1B1B055B0D13436B80524BEF712A
:100B9000AB80FF23AB71029BAB604B460B4319004C
:100BA000484B019A9B689950BFF35F8FBFF35F8FEB
:100BB0000022414B1A608BF3108805B0F0BCBB4695
:100BC000B246A946A046F0BD01200A008243D3796F
:100BD000BB422FD845464E46130040491B1B5B4184
:100BE0005943090D3A4B63533A4B02356519043B9F
:100BF0005B1B1B05354D5B0D2B4373800426B446F0
:100C0000E0444444131F1B1B4C46A17102991B0571
:100C1000A16049465B0D2B43A380314BE771014333
:100C20001360BDE75800C01880002018C679BE4286
:100C30002BD902000623D356002BF3DA101D82466F
:100C40002848804604267642B446E14450464E4643
:100C5000361A3005400D824656461C4895710643AB
:100C60009680039A944665441D4AAD00641922603B
:100C70004246A371029BA280E771A36090E701F056
:100C800051FB002553465D5754E7101D824690885E
:100C90004005001584464046D4446646043020187A
:100CA000301AE0260005400D360230438046C9E781
:100CB00001F038FB57E7C046240100D0A53B0020D7
:100CC0006C24002000ED00E0CD01001000E0FFFFEB
:100CD00000A1FFFF9C24002001BDFFFFAAAA000085
:100CE0000148804701BD0000F0B5DE4657464E463C
:100CF0004546E0B50C0083B0EFF3108972B6584A50
:100D00001368002BFCD0BFF35F8F564B9A6803002B
:100D100010339F00D559544A9046954232D0A5428F
:100D200043D0524EAA1B2F2A2CD801228240924631
:100D300051464F4A12681140019151464D4A116087
:100D4000BFF35F8FEFF305829346002A33D101236F
:100D50002A009A4393689C4208D177E04B005B18C5
:100D60009B00F3189968A1422AD01A000621515617
:100D70000029F3DA019B002B19D052463E4B1A6032
:100D80003B4B1A60374B9B68DD51BFF35F8FBFF35E
:100D90005F8F0022324B1A6089F3108803B0F0BCD9
:100DA000BB46B246A946A046F0BD1500EAE752464A
:100DB000304B1A60E6E79342C9D001F0B3FAC6E7B8
:100DC00006215956002921DB4A00501880003418AA
:100DD0008046A0689860E079D87106202056987106
:100DE000002824DBA488F01A640524154444001963
:100DF000E0240005400D24022043988052181F4B28
:100E00009200B6181A781970B271B3E759460029E2
:100E10000FD1FF3191711A49918018490A789A715E
:100E2000184A9B1B5B415A43120D0A70A2E71648F1
:100E3000E3E7164A1649D21A083A5002400D014318
:100E40009980144952080A43DA8093E706215156E3
:100E500013000029B8DA5A46002AEAD14546DCE7F1
:100E6000240100D000ED00E0CD0100106C24002032
:100E700000E100E080E100E080E200E0A53B00202E
:100E800001BDFFFFAAAA000001BD0000A6240020AA
:100E900000F0FFFF00F8FFFF70B5EFF305810124BC
:100EA0000443EFF3108C72B6214A1368002BFCD078
:100EB000BFF35F8F1F4B05001F4AED1A6D416A4358
:100EC000120D1E4D8900AE6852B27658A6421CD053
:100ED0000621595691421CD012215956914222D0D6
:100EE0001E215956914220D02A215956032491425D
:100EF00010D0134B19781A708171BFF35F8F0022E5
:100F00000B4B1A608CF3108870BDAB680D4C5C50B5
:100F1000EFE700246100091989005B18FF2199712E
:100F200009499980E5E70124F4E70224F2E7C04685
:100F3000240100D06C240020AAAA000000ED00E0EB
:100F4000A53B0020CD01001001BDFFFF054B064A67
:100F50001360064A136053609360D360136153615A
:100F6000936170478080808000E400E004E400E04A
:100F700000B5074B83B0010000930022052305480C
:100F8000FFF7D8FC002801DB1F23181A03B000BDAF
:100F9000DC6D0010AA3B0020024B9C466144890096
:100FA000016070474000003410B50400FFF71EFDDB
:100FB00001002000FFF7F0FFFF232371BFF35F8FD5
:100FC00010BDC04610B50400FFF710FD0100200061
:100FD000FFF7E2FFFF23A380BFF35F8F10BDC04682
:100FE00010B504000120FFF70DFD044B9C46604442
:100FF00080002060BFF35F8F10BDC046400000340A
:10100000034B9C46614489000160BFF35F8F7047CA
:101010004000003483680B4810B584466144624444
:10102000090112019A18591854684B6801209C4212
:1010300001D802D00020C0B210BD12680B689A42DD
:10104000F9D8F7E7FFFFFF0F0A4B1968EFF310809D
:1010500072B60A68002AFCD0BFF35F8F1B68BFF32B
:101060005F8F00221A6080F3108840BF00200021AB
:101070007047C046743B0020F8B557464E4645467B
:10108000DE46E0B599460CAB1C780DAB1B7806002C
:1010900090469A460768002C11D1BC7B002C42D0A8
:1010A00065003B682D19033D59194B78BB73002B24
:1010B00000D1FB7300238B704B700B7004E0650054
:1010C0003B682D19033D5919B2682A4B9446424694
:1010D000E3181B0163441A604A465A600A9A9A60F0
:1010E0000B9ADA6000238B704B700B707B7B9B46F6
:1010F000002B2BD022005946B8687B6898473A6885
:10110000002816D05B4658465B005B445519033BEC
:10111000A870D118D35C002B00D06B705B460C70AC
:101120007B73A34513D0F0BCBB46B246A946A0468C
:10113000F8BD5B465B005B44033BD3189C705119C0
:10114000525D002A00D05A705B460B707C73424699
:101150004B46307D00F0A8FB051E06D05346002B01
:1011600003D12100306800F0C3FD0E9B002BDAD0C4
:101170001D70D8E7FFFFFF0FF0B5DE4657464E461D
:1011800045460023E0B58BB00893674B8200D458E6
:1011900000239B46099000F027FB626806000F00C1
:1011A000EFF3108572B61368002BFCD0BFF35F8F8E
:1011B00023689C465B7B9946002B00D169E0A268BE
:1011C0005A4B90464B441B01984443461A685B684F
:1011D00010001900801BB941002900DC63E0099868
:1011E00000F062FB0023002298460023069207933A
:1011F00000239A466368BFF35F8F5A461A6085F3EF
:1012000010885346002B08D10028C4D10BB0F0BC85
:10121000BB46B246A946A046F0BD089B414618020F
:101220004B461843D047626806000F00EFF3108565
:1012300072B61368002BFCD0BFF35F8F002F50DB1A
:1012400033003B4302D02369002B61D12368D97B53
:10125000002907D04A00521819688C464946624452
:10126000033A51709A7B002A01D14A469A734A4642
:10127000DA734B46E168013BCA5C0132CA545B46F3
:1012800023616368BFF35F8F5A461A6085F3108845
:1012900081E700230022984600230692079300234B
:1012A00000209A46A6E7002902D1002800D096E740
:1012B0000021604600F09AFC43461A685B6806927B
:1012C000079343469B689A464346DB689846E36823
:1012D0004B44013B1B7808931B020343236100200E
:1012E00088E72369002BB1D0069A079B921BBB416C
:1012F000002B15DB594604910121039149460291C7
:1013000041460191514620000091FFF7B5FEB6E736
:1013100000F06AFA32003B0012184B41002BE9DA68
:101320000122034B5242E5E7583B0020FFFFFF0F2D
:10133000FFFFFF7F10B5144C6368002B04D00A2117
:101340001248FFF729FE10BD2300114A1021206822
:1013500000F066FB032000F03BFA032000F00EFBD8
:1013600003200C4900F05AFAFFF740FB0A4B9C4659
:1013700003232375D0231B061B6860446375074B4A
:1013800080006060DC60DAE7B4240020743B002059
:10139000151000107911001040000034583B002057
:1013A00000487047B4240020F0B54E464546DE465E
:1013B0005746E0B585B0019310AB1B780600039348
:1013C00000239946984600927268EFF3108B72B62C
:1013D0001368002BFCD0BFF35F8F3568AC7B002C0B
:1013E0003DD067002B683F19033FDB195A78AA7379
:1013F000002A00D1EA73B168474A8C4600980199E7
:10140000A21812016244106051600E9991600F9908
:10141000D16042469A705A701A706B7B9A46002BC4
:1014200067D022001900A8686B6898472A680028CE
:1014300052D0534650465B005344D719033BB87013
:10144000D118D35C002B00D07B7053460C706B73AB
:1014500054454FD0F3681B19013B187800E0002079
:101460007368BFF35F8F42461A608BF31088002CBD
:101470004FD04B46002B08D10002204305B0F0BCF2
:10148000BB46B246A946A046F0BD039B002B3ED00A
:101490000E9B00200F999847030004000D000B439A
:1014A00035D000290ADA009A019B121BAB41009249
:1014B0000193002B0ADB039B994685E700F094F922
:1014C00024184D4100940195002DF4DA0123134CAA
:1014D0005B4200930194EEE753465B005344033BA9
:1014E000D3189C70D119D25D002A00D05A7053468F
:1014F0000B706C73307D009A019B00F0D5F981462A
:101500000028A7D02100306800F0F2FBA2E70020FD
:10151000B4E701204042B1E7FFFFFF0FFFFFFF7F6D
:10152000407D7047F0B504000D0006267642F7179F
:10153000C64636196F4100B584B08F4214D811D019
:1015400000F052F932003B00121A8B41002B15DCDF
:10155000002B3ED02000290000F050F904B080BCE0
:10156000B846F0BD8642EBD90026002700F03CF9D2
:1015700032003B00121A8B41002BE9DD002302935D
:101580000193154B3200009314483B00FFF70CFF0A
:101590000028DFDB00239846BC46114A114F7B6AC6
:1015A0009C4504D8B96A8E42D4D99C45D2D11168E1
:1015B000EFF3108072B60B68002BFCD0BFF35F8F87
:1015C0001368BFF35F8F4146196080F3108820BF16
:1015D000E5E7002ABED0D1E749100010B42400206E
:1015E000743B00200040054070B504000D0000F081
:1015F000FBF800196941002902DBFFF793FF70BD7A
:10160000012001494042F8E7FFFFFF7F70B5060067
:1016100000F0EAF8FA2204000D0000233000002157
:10162000920000F065FF00196941002902DBFFF715
:1016300079FF70BD012001494042F8E7FFFFFF7FBD
:10164000F0B5EFF30583CE46474680B505000C00A4
:1016500085B0002B12D02C4A0020536A9C4203D83C
:10166000926A0130AA4204D305B0C0BCB946B04664
:10167000F0BDE01A421E9041C0B2F5E7234E02933E
:101680000193234B0200009330000B00FFF78CFE08
:10169000031EE0DD20BF7168EFF3108772B60A68A1
:1016A000002AFCD0BFF35F8FDAB294463068427BE9
:1016B00062451DD0FF221A405100894601689144BD
:1016C00088464946414403398978002913D0F16896
:1016D0001B0A88464244013A1278DBB29A420FD084
:1016E0007368BFF35F8F00221A6087F31088B2E738
:1016F000FF221A40EBE732699342F1D13161EFE703
:10170000614600F0F5FAEBE700400540B424002004
:1017100049100010F0B5EFF30582D6464F46464615
:101720001000C0B51038EFF3108872B6214C236852
:10173000002BFCD0BFF35F8F0123190081401E4DA9
:101740001F006963AA461D4D29601D4D2E78AC46C9
:101750003500C5402F402B4209D1BFF35F8F276072
:1017600088F31088E0BCBA46B146A846F0BD53469F
:10177000144D5F6A83005D59AF420ED3124A8E4307
:101780009B5862461670BFF35F8F0022226088F379
:101790001088002BE6D09847E4E70C4B92009C465B
:1017A000624413681360BFF35F8F0023236088F3E4
:1017B0001088D7E7280100D0004005403C70054064
:1017C000A93B0020803B002088350020D03F054009
:1017D00010B50100024A0348FFF78AF810BDC04661
:1017E000F86D0010A43B0020034B596A0A00986A68
:1017F000596A8A42FAD1704700400540064A536A46
:101800009942FCD807D1044B02E05A6A914202D1B6
:101810009A6A8242F9D370470040054070B50400CF
:101820000D00EFF3108672B61A4A1368002BFCD035
:10183000BFF35F8F002D1BD02000FFF72FF9164953
:1018400081420AD02000FFF731F901212000FFF783
:10185000E9F80123A340114A1360114BA400E5509D
:10186000BFF35F8F00220B4B1A6086F3108870BDA8
:101870000B4BA200D5500122A2400A4920000B7850
:1018800093430B700449FFF72FFA00212000FFF764
:10189000C9F8E5E7280100D01517001038600540A9
:1018A00088350020A93B0020F0B54F46D646464675
:1018B000C0B507002C4C616A0D00A66A616AA94296
:1018C000FAD18B4208D805D00120E0BCBA46B14617
:1018D000A846F0BDB242F7D9EFF3108A72B623489A
:1018E00001680029FCD0BFF35F8F0125BD4020496E
:1018F0001D4C8846097889462943C9B28C46414621
:1019000060460870391D1B48890065630A51B9009B
:101910000B50216A0020294219D0616A0800A66A8A
:10192000616A8142FAD18B4219D801D1B24216D8EC
:10193000CC4516D00C4B1F201D625D630123074070
:10194000BB400D4A1E38136043464A461A70BFF327
:101950005F8F0022054B1A608AF31088B5E70020DC
:10196000F5E70120F3E7C04600400540280100D01C
:10197000A93B0020803B002080E200E0EFF3108CC8
:1019800072B60A490B68002BFCD0BFF35F8F0123AE
:101990008340074A0748136202789A430270BFF3F4
:1019A0005F8F00230B608CF310887047280100D0F4
:1019B00000400540A93B002070B50500140016004A
:1019C000002915D00C00002A12D080686B68984757
:1019D000296800280ED073009B196200033B12197E
:1019E000CB18033A9C7088188A5C002A15D10670BF
:1019F000200070BD63001B197200033B9219CB18C5
:101A0000033A9E7088188A5C002A02D10470340060
:101A1000EEE75A7004703400EAE75A700670E7E7A0
:101A200030B583600023CCB243730133047342604A
:101A30008373C4730D000068012C06D9421C013366
:101A4000DBB2137003329C42F9D1FF2129404B00D5
:101A50005918002340180338437030BDF8B5CE46FE
:101A6000474606000C0080B5002907D04D000368EA
:101A70006D18033D5A195778002F04D12000C0BCBF
:101A8000B946B046F8BD7900C919033988464344C0
:101A90005978894600215970517073683A002100C5
:101AA000806898473368002814D042469A1894708A
:101AB00059195B5D002B00D053700F702700494609
:101AC0003000FFF7CBFF390002003000FFF774FF52
:101AD0000400D3E7424641465D19AF709A185B5C3B
:101AE000002B00D06B701470E9E7C046F0B5574684
:101AF0004546DE464E46E0B50D006B0001685B19B9
:101B0000DF1E0400C85D83B00192CA19002850D0BE
:101B100043001B18033BCB185E78B446002E1AD145
:101B2000019E002E42D0E67B002E04D073009B194C
:101B3000CB18033B5D70A37B002B00D1A573E5732D
:101B400000282FD10023537003B0F0BCBB46B2462F
:101B5000A946A046F0BD72006244033A89184A784B
:101B6000904600224A7091465A70010032002000CF
:101B7000FFF722FF43468246002B07D05B00216817
:101B80004344033BCB185A78002A16D142465146AB
:101B90002000FFF711FF2168019BCA19002BC2D159
:101BA0000028CFD043001B18033BCB1800219970AD
:101BB000C8E7019B002BB6D1C4E75000801803385A
:101BC00009184878834648464870587041462000B6
:101BD000FFF7F2FE594680462000FFF73FFF4146DF
:101BE00002002000FFF7E8FE8046CFE7F0B5574639
:101BF0004546DE464E46E0B583B00191457B040084
:101C00006B0000685B19DF1EC15DC219002952D04C
:101C10004B005B18033BC3185E78B446002E1CD102
:101C2000019E002E44D0E67B002E04D073009B1949
:101C3000C318033B5D70A37B002B00D1A573E57334
:101C4000002931D1002328005370617303B0F0BC28
:101C5000BB46B246A946A046F0BD72006244033AB4
:101C60008018427890460022427091465A702000B7
:101C70003200FFF7A1FE43468246002B07D05B00EF
:101C800021684344033BCB185A78002A17D14246B7
:101C900051462000FFF790FE019B01002068C21909
:101CA000002BC0D10029CDD04B005B18033BC318DB
:101CB00000209870C6E7019B002BB4D1C2E750000A
:101CC0008018033809184878834648464870587089
:101CD00041462000FFF770FE594680462000FFF77E
:101CE000BDFE414602002000FFF766FE8046CEE7BB
:101CF00070B5040000292CD0437B8B422ED00568A0
:101D000048004018033828188278002A21D0530050
:101D10009B18033BEA5CEE188A4202D11BE0002AC2
:101D200008D053009B18033BEB185A788A42F6D12F
:101D300042785A7000230122837043702000FFF71D
:101D4000D5FE617B02002000FFF736FE60730120A4
:101D500000E0002070BD43783370EBE701221900EA
:101D6000FFF7C4FE60730120F4E7C04630B50C20D5
:101D700083B000F0B9F9FEF79DFD00280ED0994B15
:101D8000994A1A605A609A60DA601A615A619A61D7
:101D9000DA611A62954A5A6203B030BD944CA0676A
:101DA00000F0F6F90122934B1A60636C012BFCD111
:101DB0000322914B1A608E4A936B012BFCD10133A5
:101DC00001218E4A8E480093043300F03DF905232B
:101DD0008C4A009301218C4800F036F98B4B5A68ED
:101DE000FF2A02D8802252005A6080227D4C824B0A
:101DF00021691201854D1A60002907D0606900F041
:101E0000F1FA431C5800C0180338FDD2E0217F4B83
:101E100002201A681140802252012A431160196879
:101E2000484003210140116004219A681142FCD00E
:101E30008022802192012A430901116080225200F0
:101E40005A60734B2361734B5968FF2900D85A605D
:101E50000321684A6F4B116002399A681142FCD025
:101E6000E0201A681040802252011A43106018685E
:101E70004840032101400220116066498A681042EF
:101E8000FCD0802292011343802212011A6080222A
:101E9000614B52004A606361604B5968FF2900D86A
:101EA0005A6080225E4BE16912015C4D1A60002984
:101EB00007D0606900F096FA431C5800C018033838
:101EC000FDD2E02255490B681A4080235B012B4369
:101ED0001A60802380229B012B4312011A6080220A
:101EE000414B52004A60E3614E4B5968FF2900D8CC
:101EF0005A6080224C4B216A12014A4D1A60002917
:101F000007D0606900F06EFA431C5800C01803380F
:101F1000FDD2E02243490B681A4080235B012B432A
:101F20001A60802380229B012B4312011A608023B8
:101F300080225B004B602C4BD20223623B4B5968E2
:101F4000914200D25A608022394B616A1201374DAA
:101F50001A60002907D0606900F044FA431C580059
:101F6000C0180338FDD2E02230490B681A408023A4
:101F70005B012B431A60802380229B012B431201BB
:101F80001A608023DB024B60184B6362294B5A684E
:101F9000FF2A02D8802252005A608022264BA16973
:101FA0001201244D1A60002907D0606900F01AFA66
:101FB000431C5800C0180338FDD2E0221D490B68AD
:101FC0001A4080235B012B431A60802380229B01EF
:101FD0002B4312011A6080235B004B600E4BA36100
:101FE000DAE6C046A4360020006CDC021BB7000015
:101FF000008000403CB0004030B00040002F6859E5
:1020000000800240008C864700C0024030800040C3
:10201000001BB7003C8000404059730754800040CB
:1020200054B000406080004060B000406C800040D0
:102030006CB000404880004048B00040014B800038
:10204000C0587047A4360020F8B5040021481D0090
:1020500017000E0000F0C6F90100380000F0C2F9C8
:10206000069B29041B0319432368002B20DB1A4B12
:102070001A4DE21853425A4180235B019C461203D9
:10208000174B62441A60174B1A601700AB689F43E6
:10209000FBD1C022231D92011A4321232660A06098
:1020A00013602368002BFCDA0823E1601360F8BD9D
:1020B0003F2322681340B342D9D1A3681B051B0DEF
:1020C0008342D4D1EE22E368D20213408B42CED1B8
:1020D000EDE7C046001BB7000040FDBF00C0004058
:1020E00000E0004000F000408023024A9B000343D0
:1020F000D36270470080054010B5140080221B4B4E
:10210000D2051A6000281AD00123194A1843194B26
:10211000DA61194A42401A62596298628022134B6E
:10212000D2051A601549164A1160E022D2041A60DD
:10213000002C07D18022134B12061A6010BD0D4BE4
:10214000D861EBE763011B1B9A008023121912016F
:102150005B049A4200D30C4A0C4B1A60054B5A6040
:102160008022084BD2051A60E8E7C04600B005405F
:10217000D3C007B0008005402D3FF84FFCFF0100A1
:102180000820014000A00540FFFFFF00483B002061
:10219000AA23064A1B0113602133FF33D36004498D
:1021A000044B19605368002BFCDA70470040024072
:1021B00000B0FA00006002402C4B2D4A70B51A6046
:1021C0002C4A2D4B2D491A6014008B689C43FBD17F
:1021D0002B4D2C4EB54208D2013E761BB60808CDD9
:1021E000984723000134B342F9D1FFF7BFFD264AD7
:1021F000214B1A60214A9368DB43DB01DD09002B88
:10220000F9D14022214B224C224E9A675A671A6715
:10221000DA66B44208D223682000002B20D00834AC
:10222000FEF7D0FEB442F6D31B4E1C4CC022A16870
:10223000300000F0FBF9A660FEF7CAFBFEF786FE51
:10224000FFF778F8164C174EB44208D2013E361B01
:10225000B60808CC98472B0001359E42F9D170BDD5
:102260000834FEF7A1FEB442D5D3DDE700E000401C
:10227000BFCDFBFEFE7F3C0000F0004000C00040F0
:10228000982D0020A82D0020FFFFFF0100F0014045
:10229000882D0020982D00200000002000ED00E097
:1022A000A82D0020B42D002000BEFDE7094A030040
:1022B0001068002805D00849C3188B4207D813605E
:1022C000704706480449C31810608B42F7D90120B3
:1022D0004042F5E74037002000000420AC3B0020DE
:1022E00000207047012040427047C04610B5FFF7FC
:1022F000DBFFC0460FB400B5084883B000F0D0FA49
:10230000049B002B07D005A91800019100F018F8D4
:10231000034800F0C5FA0120FFF7C6FF1C6E00104D
:102320002C6E001010B50148FFF7E4FF306E00106E
:1023300010B5002800D110BD00F066FAFBE7C046DA
:1023400010B5094A0300146884B0002C08D001229B
:1023500000910648524203A9A047012004B010BDD5
:1023600000F09EFA0020F9E7443B002031230010E2
:1023700001480421014B1847E0240020A12300104C
:10238000142310B50100188804331B88984710BD2A
:10239000162310B50100188802331B88984710BD1A
:1023A000F8B54746CE4680B50F1E19D0142399467E
:1023B000043304000025012698464B4618884346FE
:1023C00021681B88984701C4431E9841013540424B
:1023D0000640AF42F1D13000C0BCB946B046F8BDAE
:1023E0000126F8E7114A936F9B0813D210665166D5
:1023F000002905D0FFE7FFE7FFE7516F106F704737
:1024000004B5002801D00020C04304F02DFC0021B9
:1024100004BDC046F0B5146E556E576F166FFFF7CA
:10242000E5FF1466556657671667F0BD000000D0DB
:10243000132370B51D78012D15D010DD1C48FFF752
:10244000A7FF1C4C01008022200000F0EFF8022DB5
:1024500006D01948FFF794FF184B186070BD154C53
:10246000174BA364F5E7164B124C23606360A3601F
:10247000E36023616361A361E36123626362A3623A
:10248000E36223636363A363E36323646364A3641A
:10249000E36423656365A365E36523666366A366FA
:1024A000E36623676367A367E367A364D1E7C04676
:1024B00053440000C02E00204C330000703B00202D
:1024C000C524001007B5604601880A0A0230DF2AD9
:1024D000FAD1C9B2820804D30288408800041043AC
:1024E00000E00068014A5050039007BDC02E002054
:1024F00051434343C9188C46110C83B24B4310B46B
:10250000040C614392B280B2504362431C041B0C22
:10251000001910BC59411304120CC01851416144F8
:1025200070470000132310B512481C78FFF730FFE6
:102530000100012C0AD003DD80220F4800F076F85C
:102540000E48FFF71DFF0E4B186010BD0A4C5422B9
:10255000200000F06BF80B4B6365A365E365236611
:102560006366A366E36623676367A367E367236223
:10257000E361E5E753460000C02F00204C33000024
:10258000703B00208925001007B5604601880A0AC3
:102590000230DF2AFAD1C9B2820804D30288408807
:1025A0000004104300E00068014A5050039007BD4A
:1025B000C02F002070B504000A4E300004F0CCFBA0
:1025C000200003F009FD0500300004F00DFB002D94
:1025D00005D0054B2C199C4201D8280070BD03483A
:1025E000FFF788FE882D0020000004203C6E0010BC
:1025F00070B50400054D280004F0AEFB200003F088
:10260000F5FC280004F0F0FA70BDC046882D0020CB
:1026100001480421014B1847F0240020A123001099
:10262000014B1B6818470000F0240020014B5B6839
:1026300018470000F024002010B5FFF7D9FF10BDA7
:1026400010B5FFF7D5FF10BD030010B5080011004D
:102650001B68984710BDC046F0B546464F46D64663
:10266000C0B5437D80460E001700002B46D0002ADF
:102670003FDD4B1E9946244B0125002400209A463D
:102680000DE04B461B5D0D3B5A425341325DDBB2C0
:102690000A2A0BD02B00013401359F421ADD002C91
:1026A000EFD14346325D1B7D0A2AF3D1002BF1D1D5
:1026B000A04204DA4346211A1B6830189847434663
:1026C00050461B6802219847013428002B00013531
:1026D0009F42E4DC874204DD4346391A1B68301808
:1026E0009847F619013E33780D3B5A425341424612
:1026F0001375E0BCBA46B146A846F0BD03681100A8
:1027000030009847F5E7C046B86E0010F0B5DE46D9
:1027100057464E464546E0B585B017001C000600FA
:102720000D00FFF761F80023304A12184B41002BCF
:1027300058DB2F4908008A4604F0D6FA01906B1C3A
:1027400003D1300004F0D8F80500002C25D1294B26
:102750009846294B1C68002C15D0002F20D1274FFC
:1027600002E02469002C0ED02368002BF9D03B68CE
:10277000002B01D0A342F4D120002A003100C04731
:102780002469002CF0D1019B002B27D105B0F0BCAF
:10279000BB46B246A946A046F0BD194B9846D8E7BD
:1027A000164B994602ABDF1D0A239B4602E02469C3
:1027B000002CE8D02368002BF9D04B461B68002B77
:1027C00001D0A342F3D12A0031002000C0475B466C
:1027D0000122390020003B70C047E8E7504604F072
:1027E00003FAD3E70122074B5242A2E740420F000F
:1027F000902D002059260010343700203C3700204F
:1028000049260010FFFFFF7FF0B5CE46474680B552
:1028100083B06B460600DD1D2870FEF7E5FF002340
:102820001A4A12184B41002B2BDB19490800884625
:1028300004F05AFA174B81461C68002C14D0164F2E
:1028400002E02469002C0FD02368002BF9D03B68EC
:10285000002B01D0A342F4D1200001222900FFF770
:10286000FBFE2469002CEFD14B46002B05D1300034
:1028700003B0C0BCB946B046F0BD404604F0B4F960
:10288000F5E70122054B5242CFE7C04640420F0018
:10289000902D0020343700203C370020FFFFFF7FC1
:1028A00070B5040004F028F800230100050001229F
:1028B0002000FFF72BFF084B1C68002C06D0636834
:1028C000002B05D098472469002CF8D1280070BD52
:1028D0002469002CF3D1F9E7343700200A4A136841
:1028E000002B05D10CE01A001B691032002B07D019
:1028F0009842F8D1002902D1036913600161704741
:102900000029FCD01060FAE73437002010B500F041
:10291000D9F910BD7047C0460022014B1A707047AC
:10292000A63B00204B790020FF2B0BD18B79002B8D
:1029300008D1CB79012B05D1082A03D98A78024B1B
:1029400009301A707047C046A63B0020012070472E
:1029500070B5012909D115495379107909781B02FD
:1029600003430020994202D070BD0120FCE7537858
:10297000012B08D0022BF7D1002064220021FFF7A1
:10298000BBFB0120F0E79478D278050012021443D3
:10299000D20502D5620A93401D000548FFF7F0FCFE
:1029A0007F210300214028009847C046A63B002015
:1029B000554200000123037000487047BC6E0010B0
:1029C00048780B788A780002184312041043962244
:1029D000CB7810B51B060343D200934200D010BD44
:1029E0000348FFF7CDFC0021030008009847C046CC
:1029F00055420000024B1860024B19607047C046F8
:102A0000983600209C36002010B5024B1878FEF74F
:102A100027F810BDA73B0020114B70B51A68002A9B
:102A20001AD0EFF3108172B610680028FCD0BFF303
:102A30005F8F00220B48596002701B68BFF35F8FE5
:102A40001A6081F3108800240025074B1878FEF7E0
:102A500007F82900200070BDFA240025A400F4E73F
:102A6000503B0020A83B0020A73B002070B504008D
:102A700000200E0001F002FB002835D0002001F0FC
:102A800015FB002830D0FEF7AFFE0023184A1218BD
:102A90004B41002B24DB174D280004F025F90028BA
:102AA00022D0002001F0EAFA00280BD101200021F9
:102AB0000324404200F0CCFC6442280004F094F867
:102AC000200070BD002001F0F1FA0028EED02100B6
:102AD0003200002001F0F6FA041EEED1033CECE7D0
:102AE0000122054B5242D6E703246442E8E7C04680
:102AF00040420F00783B0020FFFFFF7FF8B5DE4625
:102B0000574680B505000C00FEF76EFE0023364ADE
:102B100012184B41002B5ADB344908008A4604F056
:102B2000E3F8002803D1C0BCBB46B246F8BD002084
:102B300001F0A4FA00284ED00026002C43DD2C4BD7
:102B40009B4614E0A919002001F030FB070001208A
:102B50000021404200F07CFC002001F0EBFAFEF77F
:102B600043FE234BF61918605960B4422BDD002058
:102B700001F036FBA71B0200B84200DD3A00002A34
:102B8000E0D101200021404200F062FC002001F071
:102B9000D1FA002001F072FA002814D0002001F0D0
:102BA0001FFB0028E1D1FEF71FFE5B460F001A68ED
:102BB0005B68002184460F4812184B419F4202D89F
:102BC000D3D19445D1D9504604F00EF8ABE7012299
:102BD000094B5242A0E700200021054B18605960C4
:102BE000504604F001F89EE740420F00783B002079
:102BF000B82E002020A10700FFFFFF7F10B5244C56
:102C000084B00021200004F03FF800281CD1214BA3
:102C10001A68002A16D0EFF3108172B610680028E7
:102C2000FCD0BFF35F8F01241B48596002781B68FA
:102C3000D2B20470BFF35F8F0020186081F3108858
:102C4000002A0AD004B010BD01200021404200F04B
:102C5000FFFB200003F0C8FFF4E7FEF7A1FB040030
:102C6000FEF7C2FDFA220023920012184B41002BFE
:102C700009DB012102910021019108492000009106
:102C8000FEF792FBDEE70122054B5242F1E7C04618
:102C9000783B0020503B0020A83B0020192A001060
:102CA000FFFFFF7F054B10B51868002804D0044BC8
:102CB0000022196801F044F810BDC0469836002083
:102CC0009C360020D02310B51B0684B01C68FEF78C
:102CD00067FBFEF725FCA04202D0002004B010BD27
:102CE000264B1B7801F066FC2548FEF75DF90120B4
:102CF000FEF73EF9FF23234C234920701840FDF7CF
:102D0000D5FE20780121FDF78DFE0520FDF7B0FEF0
:102D1000002822D1FEF744FB0400FEF765FDFA22ED
:102D20000023920012184B41002B22DB012102915B
:102D300000210191154920000091FEF735FB082282
:102D4000040000211248FFF76BFC002CC5DB114882
:102D50000121FFF7C3FD0120C0E700220E49052035
:102D6000FDF7CEFEFDF742FE01000948FEF748F9E7
:102D7000EDE70122094B5242D8E7C04674750010B6
:102D8000783B0020A73B0020FD2B0010192A0010E3
:102D9000503B002000250020092A0010FFFFFF7F84
:102DA00000487047746F001000487047206F001093
:102DB00070B5040017480378002B21D0002C06D1F1
:102DC000C1241548154BA4004380048070BD052C18
:102DD0001DD8134B1048A400E558811C002304E0C3
:102DE00001330A800231132B0ED0EA5CDCB2002AD8
:102DF000F6D1C0230134E4B264009B001C43E4E735
:102E0000112100F017F8D9E7CA24A400DDE700205B
:102E1000DCE7C046903B00200C370020090400008E
:102E2000886F001010B5024800F0D8F810BDC046F9
:102E3000683B002030B54B1E012900D1A7E0664A4F
:102E400011780D112C0030349F2900D9A2E00470B4
:102E5000012B00D1BEE00F21147821400C0030344A
:102E6000092900DD98E04470022B00D1B2E05478CB
:102E70002511290030319F2C00D990E08170032B5F
:102E800000D1A7E00F2121400C003034092900DDDA
:102E900087E0C470042B00D19CE0947825112900B0
:102EA00030319F2C00D97FE00171052B00D191E0DA
:102EB0000F2121400C003034092900DD76E04471F7
:102EC000062B00D186E0D4782511290030319F2CC3
:102ED00000D96EE08171072B00D17BE00F212140EA
:102EE0000C003034092966DCC471082B00D171E074
:102EF00014792511290030319F2C5FD80172092BDC
:102F000068D00F2121400C003034092958DC44726C
:102F10000A2B5FD054792511290030319F2C52D8CB
:102F200081720B2B56D00F2121400C00303409291F
:102F30004BDCC4720C2B4DD0947925112900303113
:102F40009F2C00D9073101730D2B43D00F21214055
:102F50000C003034092901DD37310C0044730E2B8D
:102F600038D0D1790C11220030329F2900D9073294
:102F700082730F2B2ED00F220A4011003731092AFD
:102F800001DC30321100C173102B23D0103000232C
:102F9000037030BD07345AE737310C0063E707315F
:102FA0006CE737310C0074E707317DE737310C00EF
:102FB00085E707318EE737310C0095E707319DE74C
:102FC00037310C00A3E70731AAE737310C00C47290
:102FD0000C2BB1D1C018DAE7683B002030B50025D2
:102FE00089B004000922002101A80095FFF718FB11
:102FF0000922002105A80495FFF712FB4B236A461E
:103000006846137004A90D2203F0DEFD1521082285
:1030100020006944FFF70AFB09B030BD10B501215B
:103020000520FDF7FFFC10BD10B50022002102486D
:1030300000F05AF910BDC046643700208022024BD0
:103040005202DA647047C04600201150F0B5C646FF
:1030500000B5060000F022F90C231B4DFF22AB67E0
:1030600005201A49FDF74CFD40239846184C402294
:1030700000212000FFF7D4FA4346012723832121B2
:103080000023144A6770A260136063545F31618447
:1030900041462187053963540F4A10496360E26055
:1030A000A1620B606362E26203F05EFE80239B0517
:1030B0002F64EB6490230A4A3000EA50FFF7BEFF0A
:1030C00080BCB846F0BDC046000011506D0A00201B
:1030D0004437002084001050000110508000105030
:1030E00010D001000B785B0602D14B78052B00D085
:1030F00070478A78014B1A60FAE7C0460000115009
:10310000F0B5C64600B54B790C791B02887823438D
:10311000CC787F21A4070140C509A20F4F001400FD
:10312000324E7A195201B2189070012068405070E6
:1031300000205B055B0DD0701383D4768046CA00F7
:10314000012D33D02A488446880162448446B44421
:103150006046826040461060002933D0254AC9008D
:1031600090466246414451603F223F339343022CD4
:1031700000D15B0020487A1901685201B218D16071
:103180001E4ACB18036051405340802288465201AA
:10319000934228D84346A4061C4380237F197F010D
:1031A0001B06F6191C4373681C6011E01448844622
:1031B000880162448446B44460468262404610609E
:1031C000002909D100236D01761973600D4BF3605E
:1031D000012080BCB846F0BD084AC900904662464E
:1031E00041445162C0E7FFF79DF8D3E74437002020
:1031F00084001050040010504C3B00200000105080
:10320000800010500001105010B503F0ADFD10BD4E
:1032100010B57F200C0020404000E4091100001987
:103220001A00034B4001C01800F05EF8012010BDE9
:10323000443700207F22130010B50B400A420BD008
:10324000C90980225800401806494001401812015F
:10325000002103F079FD10BD02220348C909521A6A
:103260008266EEE744370020002011507F221000D4
:1032700010B508400A4200D110BD0023C909400022
:10328000401804494001081800220349C37003F0A4
:103290005BFDF1E744370020FFF7FFFF80220D4B75
:1032A000520410B51A600C4B0C491A6010008B6860
:1032B0009843FBD10A4C9C2200212000FFF7B0F973
:1032C0008022002152010748FFF7AAF9092363670A
:1032D00010BDC04600E0004000F0004000C00040CB
:1032E000000011500000105070B5837E04000D00E6
:1032F0001600002B17D10023E38201332000A682A1
:10330000A376256103F098FC002804D08021902347
:10331000084A8902D150200003F06EFC002805D035
:103320000123237770BD03F0FFFCE4E7200003F0E6
:10333000E3FCF7E700201150024B5878431E9841F8
:10334000C0B2704764340020024B18784007C00FA9
:103350007047C04664340020034B1878FF38431E82
:103360009841C0B27047C0463C250020F8B5CE4613
:10337000474680B52C4E050033780120FF2B03D043
:10338000C0BCB946B046F8BD532200212748FFF71C
:1033900047F9274C2000FDF707FE264B1C60264C02
:1033A00020001430FDF71CFE200001F0D1FB234B60
:1033B000234F1C60234B9846002B04D03800FFF7A6
:1033C000F9FA214B1860424600243B78002A23D0AA
:1033D0001E4A90461C4A9146A34212D80FD143463A
:1033E000984701343B78E4B2A342F5D22800357007
:1033F000FFF72CFE2800FFF711FE0120C0E7002098
:10340000BEE74A461268630094461B19DB0063441A
:10341000002BF4D01B68E3E700F0EEFE3B780020C1
:10342000002BADD1E2E7C0463C25002064340020EB
:103430001C340020B834002020250020BC3400209B
:10344000A13B0020B529001030310020F9410010C7
:10345000F0B5DE4657464E464546E0B58BB001F026
:10346000AFF8002800D10FE1C74BC84D9946C84BB3
:1034700007AC9B462E687269EFF3108172B6136831
:10348000002BFCD0BFF35F8FB1613000210001F051
:10349000A1F97269B369BFF35F8F0021116083F3F3
:1034A0001088002800D1EFE06378082BE2D84A4664
:1034B0009B00D3589F466368002BDBD0A0689847D9
:1034C000D8E77F222179B24E0A405000CB09361846
:1034D000F618300001273030C378BB43C370C3787F
:1034E0000337BB43C370002A00D1F2E0A94AF37C42
:1034F000002A06D0A84A1278934200D260E19B1AB3
:10350000DBB2002B00D0BFE0A44E62792078A36824
:10351000B047AFE75B4601221B78012113435A46AF
:10352000137033235846D25C5E468A43C254C25C51
:1035300004208243F2540133F25C8A43F254F25C79
:103540008243F254237800209A4600F005FD602261
:1035500023791A40602A0DD0402A00D1BFE0DB0653
:10356000DB0E012B00D136E1022B00D1D4E0002B81
:1035700000D1C3E020780021FFF75CFE8021207895
:10358000FFF758FE76E7824E3378DB0700D471E709
:10359000834B002B00D16DE700E000BF6AE77C4E53
:1035A0003378DB0700D465E77E4B002B00D161E761
:1035B00030780007C00F00E000BF5BE7764B754A2C
:1035C0009846002627781B78002A00D179E0764AB1
:1035D00092469E425FD319D1744B380098474346B8
:1035E00001361B78F6B2B342F3D2694E5322002162
:1035F0003000FFF715F81022FF21F01CFFF710F83C
:1036000030002022FF211330FFF70AF800F09AFC67
:10361000674B002B00D12DE700E000BF2AE75E4B8F
:103620005C4A9846002627781B78002A1FD05E4AFD
:1036300092469E423AD321D15C4B3800984743468C
:1036400001361B78F6B2B342F3D2514E5322002119
:103650003000FEF7E5FF1022FF21F01CFEF7E0FF2F
:1036600030002022FF211330FEF7DAFF07E0380098
:1036700000F000FE43461B78002BE6D0444E00F0DD
:1036800061FC2379B370F5E60BB0F0BCBB46B246E3
:10369000A946A046F0BD52461268730094469B1995
:1036A000DB006344002BB1D05B6896E7524612689A
:1036B000730094469B19DB006344002BDED05B68EB
:1036C000BBE7380000F0D6FD43461B78002B9DD1A8
:1036D0008BE762792078A36800F052FCCAE635488F
:1036E000002800D146E700F037FC0121504608AA27
:1036F00000E000BF002800D0BCE63BE7202A00D154
:103700009EE0002A00D035E76379092B00D931E724
:10371000294A9B00D3589F467023217A0B4200D040
:1037200028E758460F330B405B00CE09C018194FED
:103730008019C07C002F06D0174F3F78B84200D2C6
:10374000A0E0C01BC0B2002800D096E0002A00D044
:1037500047E11A4F0220627990468243012A00D144
:1037600042E14246002A00D004E75B449E1930360D
:10377000F37806AA9B07DB0F023213805046022320
:1037800008A900F081FB75E608700010BC34002029
:1037900064340020B5290010A13B00206D440010C6
:1037A00000000000000000003031002075420010D1
:1037B00000000000000000002C7000109470001049
:1037C0005A00D318B14ADB001268D318002B00D17D
:1037D0005AE71E6999E6237A0F2B00D9CAE6AC4A4C
:1037E0005B44DB78002A05D0AA4A127893425ED364
:1037F0009B1ADBB2002B00D0BCE6A748A74E00F016
:10380000ABFB01215046F36808AA9847002800D076
:1038100030E66022160023791E401A4200D0A9E645
:1038200063790A3B012B00D9A4E600F095FB63798C
:103830000A2B00D120E1504608A900F00DFB19E643
:10384000237A0F2B00D995E6914A5B44DB78002A56
:1038500006D0904A1278934200D2E6E09B1ADBB27F
:10386000002B00D086E68C488C4E00F075FB0121C1
:103870005046F36808AA98473CE70027002A00D181
:1038800068E777E647003818804FC0003F683F1868
:10389000002A00D15EE7002F00D16BE6F86800F047
:1038A0005BFB01215046FB6808AA984722E7774A4C
:1038B0005E00F3181668DB00F618002E00D159E6FA
:1038C000F0689CE7A279019273789A4207D07378E6
:1038D000002B00D046E1019B002B00D0EAE05B46C4
:1038E000019A504608A95A7000F0B6FAC2E57378FA
:1038F00006AA023213705046012308A900F0C4FA48
:10390000B8E5E088030AC0B20F2B00D932E664495B
:103910009A008A58974608A800F024FB5046A179DF
:10392000FFF782FB0222337813433370A2E5E3886A
:10393000012B00D01EE60822337893435A461370B9
:1039400079E70220317806AB9A1C8B068908DB0FD9
:1039500001400B4311E7E388012B00D00AE608225F
:1039600033781343EAE74F4B002B00D102E600E027
:1039700000BF021E00D1FDE5D37891781B020B43F6
:10398000504608A900F080FAB4E6474B002B00D15E
:10399000F0E500E000BF021E00D1EBE550461378D1
:1039A00008A900F071FAA5E62189FFF701FA021EC5
:1039B000F4D1DFE5022B00D112E13C4B002B00D10A
:1039C000D8E500E000BF0200002A00D1D2E5D3E72D
:1039D000FFF7E6F91223020008A9504600F054FA56
:1039E00088E62D482D4F5AE7E288002A08D1424642
:1039F0005B449E193036F378012A21D09B072ED5DF
:103A0000002F00D136E5F86800F0A6FAFB6808AA96
:103A1000012150469847002000F09EFA34235A4670
:103A2000D35CDB0700D525E505E7184A5E00F318EF
:103A30001668DB00F618002E00D19BE5F06814E74D
:103A40009B07DDD51A4B1878FFF710FC0222F3789C
:103A500093434246F370F3789343F370D0E7144BEB
:103A60001878FFF7E7FB0222F37813430122F37083
:103A7000F3781343F370C3E706AB9A1C5046012357
:103A800008A9167000F000FAF4E4C04630310020B6
:103A9000B5290010A13B002089430010947000104C
:103AA0005470001000000000000000000000000042
:103AB0003C250020581EC0B2FFF776F9002800D13F
:103AC00058E543780593022B00D053E50121C279D4
:103AD0000700931152110B400A4012015B0113437E
:103AE0005A4612782F318A4313435A461370C378CB
:103AF00082781B021343C31809370393039BBB420D
:103B000000D8ACE001227B7800920B2B03D1FB782C
:103B100000933B78FF187B78042B00D02AE5002621
:103B2000039B584ADB1B9BB20293574B04931B78B1
:103B3000B24263D0B846B34256D800D01AE5534BD0
:103B4000534F41465046029A9847082803D9029A93
:103B5000824200D38AE0049B01361B78F6B2B3425E
:103B6000E9D207E55046FFF74FFBB378454A00938B
:103B7000454B002698461B78002A0DD0454FB3428E
:103B800025D820D1444B50469847434601361B78F0
:103B9000F6B2B342F3D206E0504600F06BFB434668
:103BA0001B78002B0FD1532200215846FEF738FD19
:103BB0005B461022FF21D81CFEF732FD2022FF2198
:103BC0003648FEF72DFD5B46009A9A7083E618236F
:103BD0003A68734394466344002BF4D05B68D2E7A1
:103BE000FFF7E2F80200EFE62A4B1F681823734341
:103BF000FF18002F00D1BDE4BB68A2E7029B39008B
:103C00001A005046984600F04BFB082800D8B1E453
:103C10004246824200D2ADE41D4B9846009B012BE8
:103C200028D000220AE0BB78D318DBB25B44D978F5
:103C3000FF2900D09EE40132DE70D2B2009B9A428E
:103C4000F1D18046330002003900144800F03CFDF9
:103C5000049B47441B78B34200D34FE78AE4104BE0
:103C6000002B00D13BE600E000BF38E63B004746B2
:103C70009846D3E74246054B92689A42D1D1059BBC
:103C80000093CEE7B5290010A13B0020A14200100F
:103C900094700010303100207542001077340020FD
:103CA00000000000F8B557464E46DE4645460C007B
:103CB000E0B516001F00002A3CD0702398461E4B2A
:103CC00000259B461D4B9A461AE05B461B78200058
:103CD00099465346997800F0BBFC00281CD021007F
:103CE0004846FFF70DFA002816D0A378DA09012A12
:103CF00019D00A9A013513702378E418B54219DAFD
:103D00006378052B08D1E3789B079B0FBB4203D157
:103D10004246A3781A42D8D00020F0BCBB46B24637
:103D2000A946A046F8BD0B9A013513702378E41814
:103D3000B542E5DB0120F0E73C250020643400209B
:103D4000802310B51B0184B001930E4B02901C68B8
:103D500003916269EFF3108372B611680029FCD0F9
:103D6000BFF35F8FA361200001A900F0F9FD626934
:103D7000A369BFF35F8F0021116083F3108804B043
:103D800010BDC046BC340020702270B58B780C008A
:103D90001A4201D0002070BD064B20001D78064B52
:103DA000997800F055FC0028F4D021002800FFF796
:103DB000A7F9F0E73C25002064340020074B0800F9
:103DC00019687F2310B50340C0095B003330181811
:103DD000034B181800F0F8FB10BDC046B8340020A3
:103DE00064340020074B080019687F2310B5034096
:103DF000C0095B0033301818034B181800F00CFC96
:103E000010BDC046B8340020643400207F2070B557
:103E100008400F4C4000CD09241864193034E5786F
:103E20000020ED0700D570BD0126E578094835432F
:103E30000078E570FFF7ECF90028F4D10122E3786F
:103E40009343E370E37803329343E370EBE7C046B8
:103E5000643400203C25002070B50A4E0500300077
:103E600008220C00FEF7E2FB00237F21F36022789A
:103E7000B36091425B412800D90100220023FFF783
:103E8000C5FF70BD08340020F8B5CE4647469146C0
:103E90002A4E80B50822070030000D009846FEF734
:103EA000C5FB4B46B3600023F381EC79A97924026A
:103EB0000C43231C444500D943469AB29046B38133
:103EC000002C13D0002A1FD04B46002B34D0131CDB
:103ED000402A1FD89BB2984633787F2B20D80021E8
:103EE000174A43463800FFF791FF09E07F222B78FD
:103EF00038009A42644100230022E101FFF786FF67
:103F0000C0BCB946B046F8BD33787F2B11D98021AB
:103F10000022E6E740239BB2984633787F2BDED918
:103F2000074C424649462000FEF780FB80212200D4
:103F3000D7E700210022D4E70020E1E70834002081
:103F40002434002010B5142200210248FEF768FB3B
:103F500010BDC04608340020014B18617047C046B0
:103F60000834002010B5054C010008222000FEF79F
:103F70005DFB0023A360E36010BDC0460834002051
:103F8000F8B53B4C1D0023780600DA09C9098A42BE
:103F900013D00020002D00D0F8BD364B002B03D0ED
:103FA00021003000FFF79EF82369002B44D0220047
:103FB0000321300098470120EEE77F2B06D8A06848
:103FC000002837D02A002C49FEF730FBA368E2898D
:103FD00059195219E38892B2E281A160934214D038
:103FE0003F2D12D9A589A81A071C80B240282FD8C6
:103FF0002378BFB27F2B2DD80021AA4235D01E4A8C
:104000003B003000FFF702FFC6E72369002B05D015
:10401000220002213000984700280FD07F22002183
:10402000237830009A42494100230022C901FFF75A
:10403000EDFEB1E70020AFE70120ADE70021300041
:10404000FFF7F8F830008021FFF7F4F80120A3E72C
:104050004027CDE7AA4207D0074C3A002000FEF7E0
:10406000E5FA80212200CBE780210022C8E7C04684
:1040700008340020E53000102434002010B504007E
:10408000FFF75AF9002801D1002010BDFFF75CF9B5
:104090000028F9D1B2208000444303480019037975
:1040A00001201840F1E7C04640310020B2239B00B8
:1040B000584310B5024B1030C01800F057FB10BD2C
:1040C00040310020F0B5B225AD0045432C00C64676
:1040D000174F1034E41900B5200092B200F0CAFB6B
:1040E0000600200000F060FB3F2803D8300080BCB1
:1040F000B846F0BD7B190020D9789846FFF75EFEE0
:104100000028F3D0200000F04FFB3F280AD992236B
:104110009B00EA184346D219D97800204023FFF7C4
:1041200075FEE3E743460020D978FFF75BFEDDE745
:1041300040310020F8B50400FFF7FEF8002801D157
:104140000020F8BDFFF700F90028F9D1B220800067
:1041500044432500144E2435AD19280000F006FB19
:104160000028EDD037190020B978FFF727FE002886
:10417000E6D0A2239B009C466444A4192100280099
:10418000402200F077FBB978051E08D0030022001A
:104190000020FFF73BFE0028D2D02800D1E7002006
:1041A000FFF720FECCE7C0464031002070B5B224B6
:1041B000A4004443094B2434E418050092B22000C3
:1041C00000F012FC0600200000F0D0FA3F2801D8D1
:1041D000300070BD2800FFF7ADFFF9E74031002047
:1041E000B2239B00584310B5024B2430C01800F096
:1041F000DBFA10BD40310020B222F0B51B4C83B079
:10420000002120009200FEF70BFAFF236371184B88
:1042100080260025E3800127082321002000760066
:1042200023733200278138310095073B103000F0AE
:1042300065FA2100200039313200FF310123009757
:10424000243000F05BFA8E239B00E6183000FCF768
:10425000ABFE90239B002662E6183000E561FCF778
:10426000A3FE2663656303B0F0BDC0464031002065
:1042700000C2FFFF10B5094C052200212000FEF707
:10428000CFF920002434103000F062FC200000F050
:104290005FFC0121200000F07BFC10BD40310020BC
:1042A000F0B54B79060083B0022B02D18B79022B3B
:1042B00003D00025280003B0F0BD304FBB78002BA1
:1042C000F7D18B7809253B700C780C196378242B77
:1042D0000BD1082A02D80FE0AA420DD32378E418A4
:1042E000ED186378ADB2242BF6D0052B21D0042B2A
:1042F00002D163790A2B2FD0214C200000F054FA10
:104300003F28D7D92600103E0020F178FFF756FD50
:104310000028CFD0200000F047FA3F2817D98E237D
:104320009B00E218F93BF178FF3B0020FFF76EFDA0
:10433000C0E721003000FFF727FD0028B9D0A3789F
:104340007B702378ED18E4186378ADB2CFE7F1788D
:104350000020FFF747FDADE70A4B277801930133B3
:104360000093022202233000E119FFF79BFC002892
:104370009FD00E35ED19ADB2BEE7C04640310020EA
:104380005031002042310020F8B56023140012782B
:10439000050013400020202B12D12F4A6379277982
:1043A00016781B023B439E420AD16378222B27D00A
:1043B00007D8202B17D0212B02D101293DD0012075
:1043C000F8BD232BFCD101293FD00329F7D1234B82
:1043D000002BF4D0E178A37809020020194300E013
:1043E00000BF0120ECE7012927D00329E7D11C4BAE
:1043F000002BE4D00020911DFEF7E2FA0120DFE758
:10440000012922D00329DAD101252E00A378E478EE
:10441000023924021C4314712640243210007140DA
:1044200000F0B6FB0F4B002BC9D062080020310012
:104430002A4000E000BF0120C2E707232100280036
:10444000094AFFF721FD0120BAE721002800FFF704
:1044500003FD0120B4E7C046403100200000000009
:10446000C12900100000000046310020F8B5574671
:104470004E464546DE46E0B5494F8046FA780C0088
:104480001E008A4264D19AB292239B00FD18102329
:104490009B46BB442900584600F0A6FA414BD9463A
:1044A000002B18D07B79D946FF2B14D0002E12D0C8
:1044B000AA19924603E0013555450CD07B792A783C
:1044C0009A42F8D1484600F067F90028F3D179798B
:1044D00000E000BFEFE7344B002B04D0484600F06B
:1044E0005BF9002852D0484600F05EF93F2834D8E6
:1044F0004A46103A9378A34207D001242000F0BC2A
:10450000BB46B246A946A046F8BD284B002B02D0B8
:10451000002000E000BF0020FFF70CFE0028ECD1D7
:10452000234D280000F022F90028E6D1002EE4D027
:10453000B306E2D1243D4046A978FFF73FFC041EB4
:10454000DBD0002300224046A978FFF75FFCD5E7C7
:10455000BB788B42D9D00024D0E74D46103D0020D7
:10456000E978FFF72BFC002801D1AB78C3E7484678
:1045700000F01AF93F280CD98E2292004023002027
:10458000E9784A44FFF742FCAB78B4E7FEF78AFBD0
:10459000A9E70020E978FFF725FCAB78ABE7C04638
:1045A0004031002000000000A52C00100000000099
:1045B0006431002010B50020FEF7D8FE10BDC046C3
:1045C00010B5FEF7C9FE10BD037870B5DB07040017
:1045D0000E00DD0F002B17D103785B0701D52800F3
:1045E00070BD01213000494202F05EFB2378DB07F9
:1045F000DD0F002B0AD123785B0708D4042223782F
:1046000001251343237002E00025E8E70025300070
:1046100002F0EAFAE3E7C04670B50D00012104009C
:104620004942280002F040FB23785B07DE0F002B95
:1046300004DB280002F0D8FA300070BD2378DB07D5
:1046400004D40422237893432370F2E70026F0E792
:1046500010B5437904791B0223435B055A0DC378D7
:104660009B079B0F022B05D0032B15D00020012B9D
:1046700008D010BD02291CD00020402393424041A5
:10468000C0B2F6E702394B4259410D4B9C4661449A
:1046900091424041C0B2ECE702394B425941F0230C
:1046A000002049429B001940403191424041C0B234
:1046B000DFE7044BD3185A425341D8B2D9E7C0467A
:1046C000FF03000000FEFFFF8A1870B5914207D279
:1046D0007F264C78052C04D00C7809198A42F8D82A
:1046E00070BD34008D782C4064000419ED096355C9
:1046F0000C7809198A42ECD8F2E7C046F0B5C646F4
:1047000000B5040006A805788020884617001E0022
:104710000002824227D8E068002803D001214942E4
:1047200002F0C2FA2069002803D00121494202F0B8
:10473000BBFA4346236073045B0CED031D43002367
:10474000E0686381A780E5802381002801D002F022
:104750004BFA20690124002801D002F045FA20001C
:1047600080BCB846F0BD0024F9E7C04610B5048906
:1047700041898288A3B288B28C4207D31B1A9BB2AC
:10478000101C9A4200D9181C80B210BD5100091AA1
:104790005B189BB2F4E7C046030000895B89C01A2E
:1047A00043425841C0B2704710B50489418982889C
:1047B000A3B288B28C4207D31B1A9BB200209A4244
:1047C00001D9D31A98B210BD5100091A5B189BB2D7
:1047D000F4E7C04670B5040000690E00002803D05D
:1047E0000121494202F060FA25896089A288A9B2B4
:1047F00083B285422CD3CD1AADB2002D2ED0AA4261
:1048000008D2914231D38B1A9BB263819A4203D86A
:104810009B1A9BB29A42FBD9E28821685204520C3F
:1048200053433000C918FDF701FF618901254B1C76
:104830009BB2A288994214D9002352009B1A9BB2C2
:1048400020696381002801D002F0CEF9280070BDF4
:104850005500ED1A4D19ADB2002DD0D10025638958
:104860009BB252009342EBDBE8E789188BB263817D
:10487000CCE7C046F0B546464F46D646C0B5060022
:10488000006989469046002803D00121494202F080
:104890000BFA31897289B5888BB294B2914257D3A1
:1048A0001F1BBFB2002F4DD0BD4205D2AB4254D228
:1048B0005B199CB22F0074814346B84540D89FB223
:1048C000A54203D8641BA4B2A542FBD9F288281BD9
:1048D0005204530C19009846336861439C4680B2D9
:1048E0006144874226D94346584383B21A0048465A
:1048F0009A46FDF79BFE434648467D1B64195C4380
:1049000031685044A2B2FDF791FE7189B588CB1988
:104910009BB26A00994217D99B1A9BB23069738186
:10492000002801D002F060F93800E0BCBA46B14678
:10493000A846F0BD424648467A43FDF777FEE4E7D5
:104940003B1CBCE773899BB26A009342E6DBE3E75A
:104950006F003F1BDF19BFB2A4E75B1B9CB2A9E746
:10496000F8B50400C0680E00002803D001214942B8
:1049700002F09AF9258920896189A288ADB283B2B3
:104980008FB2884228D3DB1B9BB29A4209D8E779C1
:10499000FF0906D1E068002801D002F025F93800AF
:1049A000F8BD2B00954203D39B1A9BB29342FBD2D6
:1049B000E28821685204520C5343C8183100FDF7B5
:1049C00035FEA2886B1C9BB252009D4209D99B1AEE
:1049D0009BB201272381DDE75100C91B5B189BB205
:1049E000D3E79342F5DBF2E7F0B54E464546DE46A7
:1049F0005746E0B589460500140083B0002A6ED002
:104A0000C068002803D00121494202F04DF92F89E6
:104A1000EA796B89BFB29BB2D20942D1AE889F427C
:104A200067D27200D31AFB189BB2002290469E42B6
:104A300031D9F31A1A1C9BB2A34200D9221C93B29B
:104A40009846E8884346FB189BB29B463C00B74219
:104A500003D3A41BA4B2B442FBD24004430C1800FD
:104A60009A462B6860439C46311B89B2604441459D
:104A70004ED35246434649465A43FDF7D7FDAB88CD
:104A80005B00BB4501D39B4503DB5A46D31A9BB25F
:104A90009B465B462B81E868002822D002F0A4F8F0
:104AA0001FE0AA889046944226D29F4244D34146B2
:104AB000FA1A92B2490012198A4209DB42469A1840
:104AC00092B2171BBFB29346BB423AD97F1ABFB20C
:104AD000E3199BB246469B46A046E888B6E700230A
:104AE0009846404603B0F0BCBB46B246A946A04635
:104AF000F0BDFB1A9BB298E7E888A21A4404640C44
:104B000054434246A144002AC5D046461F0099E7B7
:104B10005346594389B20A0001914946FDF786FD83
:104B200043469A1B5346A2185A430199286892B2E9
:104B30004944FDF77BFDA2E75100CA1ABA1892B2A8
:104B4000B9E7B942C2DD4646E888A0467EE7C046DE
:104B500010B50400C068002803D00121494202F0CA
:104B6000A3F82069002803D00121494202F09CF8F3
:104B70000023E06863812381002801D002F034F82B
:104B80002069002801D002F02FF8012010BDC04696
:104B900070B50400C0680D00002803D0012149420F
:104BA00002F082F82069002803D00121494202F076
:104BB0007BF87F21E379ED011940E0682943E17139
:104BC000002801D002F010F82069002801D002F07E
:104BD0000BF8012070BDC04603BDC04610B50400EF
:104BE000FCF7B4F9A04710BDF0B5040087B00F2062
:104BF0000E001700FBF728FF002105000F20FBF730
:104C000011FF002300220092019301230293D0237D
:104C100004960594002600240121022003971B0618
:104C2000002C14D01A6D1042FCD05C6540BF1A6D88
:104C3000114203D120BF1A6D1142FBD09A6DA242DE
:104C40000AD000266C46B200A458E9E79A6D1A6DA6
:104C50001142FBD140BFE5E70136052EF2D929000C
:104C60000F20FBF7DFFE07B0F0BDC0460B4B0C4A30
:104C700010B5934201D201235B421900094A9850B2
:104C800004329B50084A094B0948CA50094B9A689C
:104C9000044B9C466144FFF7A7FF10BD00080420A9
:104CA00000000420F4070000DD4B0010FC070000AA
:104CB000D94B001000ED00E0F0B5D6464F46464611
:104CC0008846C0B505240600FBF7FCFD43461F7966
:104CD0001C57284B8146F01843425841264B9A46B0
:104CE00083009C4653466246985801222023BA40CE
:104CF000DB1B013A002C32DB9C422DDCA24015006C
:104D0000104229D1002F1AD043465A78197812023E
:104D1000114342469B78D2781B040B4312061A4378
:104D20009046002241465300C95A4B0B00D1091945
:104D3000131912339B00013299519742F2D853460E
:104D4000624605439D504846FBF7C8FD2000E0BC85
:104D5000BA46B146A846F0BD0848FDF7CBFA002B8D
:104D600002DAF9E7013BF7D315009D401C0005422C
:104D7000F8D1C7E70000D0AF80350020AC7000103C
:104D8000F0B501258D400468AC434D0004606C18FB
:104D9000E40004192600C836002B28D01F68DC3434
:104DA00037605F6877609F68DB68B76023606D1865
:104DB000EB001D008024D035451964012C4380256B
:104DC0002D062560256001250F4C2E008C40846047
:104DD0000C1DA640802408318D401F21A4010443EE
:104DE000C0180A40D830266025600260F0BD8027D8
:104DF0007F023760F8277F027760C027DC343F03EB
:104E0000B7602360D3E7C04601010101F0B5574602
:104E10008246484B454653445A4253418022DE461F
:104E20004E46920294465B42E0B51B0C424A1B047C
:104E300063441360414A0D00414985B01360180076
:104E40008A689043FBD181460620FDF7F7F8534668
:104E50005A6802231A40019252460432110002920B
:104E6000C02280468020920111430B600391EF0D18
:104E700002216E02AB0DAA02400005E0904507D367
:104E800092197B4181424FD00C000231002BF5D0AA
:104E90002B008026270245463F1BA04676001C00BB
:104EA00003E04346FF1A012E40D039002800B346E4
:104EB000013EFDF797FA8442F3D244465946330245
:104EC000A8469946614353464A461C611B685046B2
:104ED0005340FF221202134080225201024313600A
:104EE0008023029C01989B011C43206002255046B0
:104EF000039E40683560564607273668284077404D
:104F0000CF263E40166020605046243018430323CD
:104F1000036040462560FDF765FA05B0F0BCBB466E
:104F2000B246A946A046F0BD0C00B1E744461900C0
:104F3000A846C8E70040FCBF00E0004000F0004089
:104F400000C0004000487047C070001010B5040059
:104F5000034B0833036000F0C9F8200010BDC046C1
:104F6000F870001010B50400044B0833036000F023
:104F7000BDF82000FDF760FB200010BDF8700010A8
:104F8000042010B500F074F8034B044A08330449B8
:104F9000036000F02FF9C046F87000104D4F00106C
:104FA000D470001070B51C4C08386368002B27D0F3
:104FB00006688519AB4223D81DD05A680434002AEC
:104FC00006D10EE051681C1D00291FD013000A00F5
:104FD0009542F7D304D12A6894466A6866445A60B9
:104FE00023681A68991888420DD05B680660436090
:104FF0002368586006E01A685B6894466644066059
:105000004360606070BD92191A60FBE75B681A68C4
:1050100099188842E9D1F6E720310020020010B546
:105020000832083000D308220723104907324868A5
:105030009A43002813D0043103E0011D4068002882
:105040000DD003689A42F8D89C1A072C08D9831807
:1050500040681C605860086802600B60083010BD32
:105060000360436808300B60F9E7C0462031002038
:1050700070B580300500FDF79DFA041E07D0802230
:1050800000212000FDF7CCFA2000803070BD280000
:10509000FFF7C4FF041EF2D100F04CF8074A803835
:1050A000936810B5984203D9D2689B18984202D3EE
:1050B000FDF79EFA10BDFFF775FFFBE720310020DA
:1050C00070B59E25084C2D012800E560FDF772FAA9
:1050D000A060002804D0002360600560436070BDBC
:1050E000E0606060FBE7C046203100207047C046AA
:1050F0007047C046004870470C71001010B504009E
:105100000421FDF79DFA200010BDC04670B5804710
:1051100000F05AFF00F070FB00F056FF0D00040095
:1051200000F0A4FB6B1C02D1200000F0E5FA00F0B7
:10513000E7F9C046024B10B51868FFF7E7FFC04615
:105140004425002010B58047FFF7F4FF024B10B54F
:105150001868FFF7F7FFC04640250020014B18688C
:105160007047C04644250020014B18687047C04670
:105170004025002010B5012812D80B00283B1A68E2
:10518000501E1860012A00D010BDDB6858310C0099
:10519000002B01D0080098472000FFF77FFFF3E7BE
:1051A00028394869FFF7B2FF70B505000026803D39
:1051B000EA602E60A9600400FFF7D6FF2861FFF7C0
:1051C000CDFF23004722583B68611A7007325A709E
:1051D00007329A7022004323553A13705370183BDC
:1051E0009370D370024B513C280026702B6370BD26
:1051F0007551001070B504000D00160000F082FB20
:10520000436832000133290043602000FFF7CCFFE0
:10521000012303602830040001F08EFD200000F01F
:10522000EBFAFFF787FFC04610B500F06BFB436851
:10523000046801334360002C0CD02023E35C472B2F
:105240000AD0002303602034200001F065FD200017
:1052500000F0D2FAFFF76EFF263BE35C4E2BF0D155
:105260002C3BE35C552BECD1323BE35C432BE8D188
:105270001F3BE35C432BE4D11E3BE35C2B2BE0D1D3
:10528000053BE35C2B2BDCD1043BE35C012BD8D842
:1052900063695B426361D6E710B50400034B0833D2
:1052A000036000F0D1F8200010BDC046F47100107A
:1052B00010B50400054B0833036000F0C5F820006A
:1052C0000C21FDF7BDF9200010BDC046F47100109F
:1052D000F0B583B01E00089B05000F001400934238
:1052E0000AD0A868089A036800921D6A2200330059
:1052F0003900A84703B0F0BD310000F069F800287C
:10530000EFD00620F6E7C046F0B5C64600B50D0062
:1053100084B01900060090461F0000F059F8041EE2
:1053200018D10A9B0C9A934231D00D9AB06829008B
:10533000036803920C9A02920B9A01920A9A0092C5
:10534000DC6942463B00A0470400200004B080BC5A
:10535000B846F0BD0D9B0A9A1A6042461A71002D9C
:105360000EDB0A9B00249C460C9B65445D1B6B4234
:105370005D4105236D421D400D9B01359D71E4E7A4
:105380000024AB1CE1D101230D9A9371DDE73000BD
:105390000B9900F01DF80028C7D042460D9B5A71AA
:1053A000D3E7C046F8B507000C0015001E0000F05A
:1053B00087F8002806D1B8682A00036821009F6991
:1053C0003300B847F8BDC0467047C046002070475C
:1053D00010B5814211D0406803782A2B0BD0496860
:1053E0000B782A3B5A425341C91801F041FA434213
:1053F0005841C0B210BD0020FCE70120FAE7C046CA
:10540000002330B51400102285B00093019303935C
:10541000036802929D6922686B46A8476B461A7919
:10542000062300201340062B02D1009B013023608D
:1054300005B030BD009B981A431E9841042340429A
:10544000984306307047C04610B50400034B08333C
:105450000360FFF7B9FF200010BDC046687200105E
:1054600010B50400054B08330360FFF7ADFF2000C3
:105470000821FDF7E5F8200010BDC0466872001055
:1054800070B516001D00069A049B040093420ED0CE
:1054900029002000FFF79CFF002806D0079B049AF4
:1054A0001E711A600123079A9371002070BD05993F
:1054B000FFF78EFF0028EBD0079B5E71F5E7C04633
:1054C00070B515001C00FFF783FF002804D00823E7
:1054D000E360023B2560237170BDC046F8B505004E
:1054E0000C0017001E00FFF773FF002807D1032EE2
:1054F00005D823683A00290020005B699847F8BD69
:105500001EB400F093F81EBC01F0B6FBF0B5C64621
:1055100000B51E0003780C0082B0472B1DD000237D
:10552000284D01932B6828009B6898470127002885
:1055300003D0019B01371B680193236829001B6975
:105540002000984601AA0123C047002824D1002743
:10555000380002B080BCB846F0BD43784E2BDED197
:105560008378552BDBD1C378432BD8D10379462BD5
:105570001CD00379432BD2D143792B2BCFD1837904
:105580002B2BCCD1C379012BC9D808D003005830BC
:10559000203B1D680190C5E7019B3360D8E72038A8
:1055A00000680300783B1D680190BBE743794F2BEF
:1055B000DFD18379522BDCD1C379002BD9D1024DB5
:1055C0000193AFE7287100102071001010B504009E
:1055D00000F098F923002278203B472A05D0826802
:1055E000002A20D18360012010BD62784E2AF6D1B6
:1055F000A278552AF3D1E278432AF0D12279432ABE
:10560000EDD162792B2AEAD1A2792B2AE7D1E2796E
:10561000012AE4D8DA690132DA61012AE3D1826829
:105620009A618360DFE7FFF785FDC04610B500F0A3
:1056300069F98368002B2ED020229A5C472A04D077
:10564000002282602033180010BD263A9A5C4E2A50
:10565000F6D12C3A9A5C552AF2D1323A9A5C432A16
:10566000EED11F3A9A5C432AEAD11E3A9A5C2B2A61
:10567000E6D1053A9A5C2B2AE2D1043A9A5C012AD7
:10568000DED8DA69013ADA61002ADBD19A698260F0
:1056900000229A61D6E7FFF74DFDC046027803006D
:1056A0000020472A00D070475A784E2AFBD19A78BA
:1056B000552AF8D1DA78432AF5D11A79432AF2D15A
:1056C0005A792B2AEFD19A792B2AECD1DB792A3A15
:1056D0009A424041C0B2E6E710B5041E06D000F081
:1056E0008BF82000FFF7DAFF002801D1FFF722FD39
:1056F000203CE068FFF70AFDF0B5DE464E4657460F
:105700004546E0B585B00600FFF7C8FF041E0BD084
:105710003300203B9A68DC68B36A91469A460023BE
:10572000376B9846756B05E0012381469846050066
:1057300007008246300000F05FF84346002B01D09E
:10574000FFF704FD4846FFF7FDFC00F055F843461F
:10575000002B01D0FFF7EEFC00F0D0F827230668FD
:10576000F25C33007833012A00D13368BF0802931A
:10577000BB000193002399462036CA4520DD2F68DF
:10578000002F00D07F1900223900300002ABFFF754
:10579000BDFE002801D0FFF747FD3B6803901B6961
:1057A00038009B461149012303AAD847002800D09E
:1057B000804601239C46019BE1449C466544DCE70E
:1057C0004346002B08D00420FFF752FC084B094A3F
:1057D00006490360FFF70EFD2000FFF797FC00F07D
:1057E00045F800F043F8FFF78BFEC046307100101B
:1057F000B4710010F150001070B5040000F082F890
:10580000220023780568203A472B04D0002D2BD1A5
:105810000260280070BD63784E2BF7D1A378552B1A
:10582000F4D1E378432BF1D12379432BEED1637983
:105830002B2BEBD1A3792B2BE8D1E379012BE5D8E6
:105840005369002B0DDB013353614368013B436017
:10585000954201D0156102602000656A01F01CFAD2
:10586000D7E70121CB1AEFE7FFF764FC10B500F092
:1058700045F80368002B09D020229A5C472A06D0FD
:10588000002220330260180001F0DEF910BD263A34
:105890009A5C4E2AF4D12C3A9A5C552AF0D1323ACD
:1058A0009A5C432AECD11F3A9A5C432AE8D11E3A0B
:1058B0009A5C2B2AE4D1053A9A5C2B2AE0D1043A6F
:1058C0009A5C012ADCD85A69002A08DB511E012A99
:1058D0000CD04A1C01D05961D8E7FFF72BFC511CB2
:1058E0000132F8D11A6902605961CFE71A69203391
:1058F0000260180001F0A8F9C8E7C04600487047E8
:10590000143100200048704714310020F8B5DE46FD
:10591000454657464E468B46E0B50500502825D0F3
:105920000F2028400C2800D976E03C4C80002058FD
:10593000874650781678000294780643D07824047D
:10594000000634430443101D002C08D070262E405E
:10595000102E00D193466DB25C44002D0CDB1C6010
:10596000F0BCBB46B246A946A046F8BD03210332AF
:105970008A43100010C8F2E72468F0E750781678E0
:10598000000294780643D07824040006344304438C
:1059900010000830D8E75478107824020443901C93
:1059A000D2E7547816782402344324042414901C3B
:1059B000CAE77F2190460024002789464646317871
:1059C000701C4E460E40BE4034434EB280460737F0
:1059D000002EF3DB1F2FB7D84906B5D50126BE40F0
:1059E00076423443B2E7002188467F311700002415
:1059F00089463E00317801378A464946564631404D
:105A00004646B1400C4307218C4651464EB2380001
:105A1000E044002EEDDB97E700F0D6FA9472001018
:105A2000020010B50800FF2A15D070231340302B58
:105A300017D004D8202B07D101F0BEF803E0402B8B
:105A40000BD101F041F910BD202B02D86023134285
:105A500001D000F0B9FA0020F5E70020502BF2D079
:105A6000F7E701F0F9F8EEE7F8B505000E001400CD
:105A70000020002D02D0280001F026F92060771CBC
:105A80003678FF2E29D160603B78781C2375FF2B78
:105A900033D01023002500217F26237532000378A0
:105AA00001301A408A405BB215430731002BF5DB09
:105AB0004519E560002500227F26037801306375D3
:105AC000310003780130194091405BB20D43073239
:105AD000002BF5DB45192561F8BD29003000FFF7E3
