:020000041000EA
:1000000000B5324B212058609868022188439860DF
:10001000D860186158612E4B002199600221596106
:100020000121F02299502B49196001219960352056
:1000300000F044F80222904214D00621196600F024
:1000400034F8196E01211966002018661A6600F04E
:100050002CF8196E196E196E052000F02FF8012189
:100060000842F9D1002199601B49196000215960AB
:100070001A491B48016001219960EB211966A021F2
:10008000196600F012F800219960164914480160C1
:100090000121996001BC002800D000471248134993
:1000A000086003C880F30888084703B5996A0420EC
:1000B0000142FBD001200142F8D103BD02B5186610
:1000C0001866FFF7F2FF186E186E02BD00000240BE
:1000D000000000180000070000035F00212200005C
:1000E000F4000018222000A00001001008ED00E03C
:1000F00000000000000000000000000074B24E7A12
:1001000000200420F7010010C3010010C5010010F9
:10011000C1010010C1010010C1010010C101001097
:10012000C1010010C1010010C1010010C701001081
:10013000C1010010C1010010C9010010CB01001065
:10014000CD010010CD010010CD010010CD01001037
:10015000CD010010CD010010CD010010CD01001027
:10016000CD010010CD010010CD010010CD01001017
:10017000CD010010CD010010CD010010CD01001007
:10018000CD010010CD010010CD010010CD010010F7
:10019000CD010010CD010010CD010010CD010010E7
:1001A000CD010010CD010010CD010010CD010010D7
:1001B000CD010010CD010010CD010010CD010010C7
:1001C00000BE00BE00BE00BE00BE00BEEFF3058054
:1001D000103800BEF2EB8871B8710110D8710110AF
:1001E0003402001090A31AE700201F49086006C8D7
:1001F00081F3088810471D48006800282FD10DA4FE
:100200000ECC002902D000F012F8F9E71849194A7B
:10021000002000E001C19142FCD1174988471749ED
:1002200088471749884700BEFDE701C901C29A42C5
:10023000FBD37047D8710110C0000020E42C0020CF
:10024000FC9D01100000042000000420FC9D011012
:10025000001004200010042000000000704709482E
:100260000FF098F80047000008ED00E0000000D013
:10027000E82C0020B446002049DC0010699C0010E6
:100280007DDD00105756000006005250ABB360539E
:10029000E06A011006005250861C0302F06A011049
:1002A000060052505422A29DFC6A011005005250D3
:1002B000DE65F468FC9D0110F8B5C0460448054BA6
:1002C00010B5834203D0044B002B00D0984710BDDB
:1002D000E42C0020E42C0020000000000648074920
:1002E000091A8B10C90FC91810B5491003D0044B57
:1002F000002B00D0984710BDE42C0020E42C0020F7
:100300000000000010B5074C2378002B09D1FFF73F
:10031000D5FF054B002B02D0044800E000BF0123AD
:10032000237010BDF02F002000000000D85F0110E6
:10033000054B10B5002B03D00449054800E000BF71
:10034000FFF7CCFF10BDC04600000000F42F0020D6
:10035000D85F0110F8B557464E464546DE468846FA
:10036000E0B51F000DAB1B78011C814640469A4644
:100370000A9D160010F084FF90235B00E958041CCE
:1003800010F0D8FE002809D0201C10F04BFFD54AF1
:10039000D54B0FF09DFA0FF083FB041C92235B00FA
:1003A000E958201C10F0C6FE002800D018E1942364
:1003B0005B00E958201C10F0BDFE002800D06DE164
:1003C00096235B00E958201C10F0B4FE002800D0F2
:1003D0006DE198235B00E958201C10F0ABFE00286B
:1003E00000D077E19A235B00E958201C10F0A2FEB0
:1003F000002800D070E19C235B00E958201C10F01D
:1004000099FE002800D069E19E235B00E958201C7A
:1004100010F090FE002800D062E1A0235B00E958B4
:10042000201C10F087FE002800D065E1A2235B00AD
:10043000E958201C10F07EFE002800D05EE1A423C5
:100440005B00E958201C10F075FE002800D057E131
:10045000A6235B00E958201C10F06CFE002800D099
:1004600050E1A8235B00E958201C10F063FE00282F
:1004700000D049E1AA235B00E958201C10F05AFE85
:10048000002800D00CE1AC235B00E958201C10F0E0
:1004900051FE002800D039E1AE235B00E858211C52
:1004A00010F056FE0F239B46002800D099E05B46D3
:1004B00002331B015959484610F00DFE5B461B01E3
:1004C000ED18696A041C404610F005FE011C201C52
:1004D00010F0EAFD3060A96A484610F0FCFDE96AB8
:1004E000041C404610F0F7FD011C201C10F0DCFD40
:1004F00053463860002B1CD10C9AE833D05810F0CA
:1005000031FE7A4910F0D3FD011C041C306810F054
:10051000E2FD30603968201C10F0DDFD0B9B804649
:100520003860013360D0F0BCBB46B246A946A04655
:10053000F8BDEC230C9AD05810F014FE6B4910F063
:10054000B6FD011C041C306810F0C5FD3060396830
:10055000201C10F0C0FD0B9B804638600133E2D1B7
:10056000D8230C9A3068D458002C7EDD10F01CFE85
:10057000C21783185340814620009A460FF048FA6C
:1005800000225B4B0FF0A4F904000D0050460FF061
:100590003FFA22002B000FF00DFA002877D04046DA
:1005A00010F002FEC317C01858404F287ADC0FF035
:1005B0002FFA02000B00200029000FF011FA00288A
:1005C00050D053464F2B4DDD00233B60306810F078
:1005D000EBFD02300428A6D8002333603B60A2E77D
:1005E0000123013B9B4662E7D4230C9A3068D45820
:1005F000002C3ADD10F0D8FDC21783185340814615
:1006000020009A460FF004FA0022394B0FF060F9EF
:1006100004000D0050460FF0FBF922002B000FF0F4
:10062000C9F9002833D0404610F0BEFDC317C018EA
:1006300058404F28BBDD002333603B68181C9846A8
:1006400010F0B2FDC2178146801850400FF0E0F95B
:1006500002000B00200029000FF0C2F9002810D082
:10066000002399464846023004E0631C21D010F074
:100670009BFD0230042800D955E7404610F094FD58
:10068000814648460230042800D94CE7A4E740469A
:1006900010F08AFDC317C018584088E70223A0E76E
:1006A0000D239EE7002333603B689846E5E703236C
:1006B00097E710F079FD831D040040460C2B29D8E4
:1006C00010F072FDC217831853404F2B20DD094BE9
:1006D000336028E7042384E7052382E7062380E7C5
:1006E00007237EE7182D4454FB2119400000C8421F
:1006F0000000E03F0000E040082372E7092370E7B4
:100700000A236EE70B236CE70C236AE70E2368E7E6
:10071000A01CAFE710F048FD06300C28F8D8E2170F
:10072000A31853404F2BF3DD014B3B60FBE6C04663
:100730000000E040F0B557464E464546DE46030011
:10074000E0B5203393B00F932033109320331193EF
:100750000EAB984618230793153B0593013B049372
:10076000013B0D930023C2461E0008900E90069098
:1007700021E1721C55460A92032E00D13EE10894F5
:10078000534604331D000B9353465B680299984609
:100790005B441A685B6814005B00994620004C4675
:1007A0000C924B08019A61080FF01AF9002800D04A
:1007B00045E10EAB9C46049BB5006544042B38D044
:1007C00053469B68554698465B441A685B6814001C
:1007D0005B00994620004C4602990C924B08019A06
:1007E000610808350FF0FCF8002800D031E10EABAD
:1007F0009C46059BB5006544042B1AD05346DB6824
:1008000055469946D94498464B465B684C465B0032
:100810009C46206864460299019A4B0861080C3591
:100820000FF0DEF8002800D0E9E00EAB9C46B500E2
:100830006544089B9846002E00D0E0E03C687D6847
:100840000022002320002900B8460FF0ABF8002852
:1008500000D0DFE1069B019353465B681A005A44BF
:1008600006939146536812681000190022002B006D
:10087000029003910FF035F80022002306000F00CC
:100880000FF090F8002800D1EDE0049B042B00D17C
:1008900083E043461C685D6853469B681A005A44CF
:1008A00002939146536812681000190022002B0031
:1008B000089009910FF015F80022002306000F00A0
:1008C0000FF070F8002800D123E1059B042B64D0C1
:1008D0005346DB689946D94498464B461A685B688C
:1008E0001000190022002B00029003910EF0F9FF76
:1008F0000022002306000F000FF054F800284CD10E
:1009000022002B00300039000FF009F802000B0024
:10091000029803990EF0D3FF4B46186059605B466E
:1009200042460833D418019A3000944663441A684A
:100930005B6839000EF0F3FF02000B00206861686D
:100940000EF0BDFF079D019A2B0094462060616068
:100950004146083BCC1863441A685B683000390094
:100960000EF0DDFF02000B00206861680EF0A7FFAB
:10097000AC4620606160019B2C0063441A685B6890
:10098000300039000EF0CBFF444402000B00206819
:1009900061680EF094FF206061600E9B0A9E0893D0
:1009A000049B01330493059B013305930B9B9A46EB
:1009B000079B08330793F3009B46069C089B270080
:1009C0005B441A685F4490465D687A6839685300F2
:1009D0006D000A000191029340465B0869080EF021
:1009E000E9FF002800D0C4E6731C0A93032E00D14F
:1009F000E4E04346002601930295C1E6A0460D9B24
:100A000042465B420D9353461A60069B00222B60C0
:100A100053461B6801935B441C685D689846200040
:100A2000002329000EF0BEFF002800D0F2E00A9B50
:100A3000042B00D1CAE0534604330B930CE7049B0C
:100A4000042BDCD00C9B0A9E01934346029408932E
:100A5000B6E6059B042BD2D00C9B049E0193434623
:100A600002940893CAE622002B00300039000EF0F1
:100A700056FF02000B00029803990EF020FF4C462F
:100A8000206061605946019A083194460B00069D2A
:100A900063441A685B686C18300039000EF03FFF41
:100AA0000B000200206861680EF009FF049B2060C3
:100AB0006160042B00D170E7019A079B9446083BC4
:100AC000EC1863441A685B68300039000EF027FFA9
:100AD00002000B00206861680EF0F1FE206061608A
:100AE0000598042800D1D4E607992C008C46019B78
:100AF000300063441A685B68390064440EF00FFFED
:100B000002000B00206861680EF0D9FE2060616071
:100B1000BFE632003B00200029000EF000FF02007B
:100B20000B00089809990EF0CAFE4C4620606160DF
:100B30005946019A083194460B00029D63441A6895
:100B40005B686C18300039000EF0E9FE02000B0003
:100B5000206861680EF0B3FE019A079B94462060FE
:100B60006160083BEC1863441A685B683000390028
:100B70000EF0D5FE02000B00206861680EF09FFEAB
:100B8000206061600598042800D106E707992C00D1
:100B90008C46019B300063441A685B6839006444EA
:100BA0000EF0BDFE0B000200206861680EF087FEAB
:100BB0004346206061601C685D6889E600223868F1
:100BC000796800230EF0EEFE002823D10F990E9BCA
:100BD0008868C9681A685B680EF0A1FE109B1A69E4
:100BE0005B690EF09CFE119B9A69DB690EF097FE23
:100BF00004000D980D000EF00BFF02000B0020000A
:100C000029000EF08CFE13B0F0BCBB46B246A946DC
:100C1000A046F0BD00200021F5E7C046F0B5DE4655
:100C2000454657464E46E0B5B84C0500A5449246A9
:100C30000C00A022002158A810F0BEFCA422002124
:100C4000520080A810F0B8FCA84628234344A146CF
:100C50009B46002400230293039400930194009880
:100C600001994346C0CB98464B46002230CB99466B
:100C7000A74B109411950EF02BFE829A839B009047
:100C80000191300039000EF023FE03000C00320009
:100C9000049305948293839430003B0039000EF056
:100CA0003EFE849A859B04000D000EF011FE0200AA
:100CB0000B0030000692079384928593390022003E
:100CC0002B00129413950EF02AFE869A879B04003F
:100CD0000D000EF0FDFD0A0001002B0008910992A5
:100CE00086918792300022003900149415950EF0F9
:100CF00016FE889A899B04000D000EF0E9FD0A009B
:100D000001002B000A910B928891899230002200F9
:100D100039000EF004FE8A9A8B9B04000D000EF041
:100D2000D7FD0A0001002B000C910D928A918B9245
:100D30003000220039000EF0F2FD8C9A8D9B0EF0EF
:100D4000C7FD03000C00029803990E930F948C9337
:100D50008D94109C119D22002B000EF0B9FD2200F5
:100D60002B0002900391300039000EF0D8FD5A9A02
:100D70005B9B0EF0ADFD0A00010020001091119266
:100D80005A915B92129A139B29000EF0C8FD5C9A4F
:100D90005D9B0EF09DFD06000F00200029005C9673
:100DA0005D97149A159B0EF0BAFD5E9A5F9B0EF04C
:100DB0008FFD04000D005E945F95C34500D04EE7A3
:100DC00006980799009A019B1C901D9122902391EF
:100DD0002890299112961397049E059F1A961B97A7
:100DE000209621970A9E0B9F300039001892199384
:100DF000089A099B2C902D91329033911E921F934B
:100E0000249225932A922B93309231930E9A0F9B22
:100E100018A93692379338A88022269627970C9ED9
:100E20000D9F2E962F973496359710F0CBFB38A850
:100E3000FFF780FC802206000F0038A818A910F0E8
:100E4000C1FB38AB9846182353441694179599461E
:100E5000454614961597029B039C38A82B606C603E
:100E6000109B119C2B626C62129B139C2B646C6414
:100E7000169B179C2B666C66FFF75CFC149A159BFF
:100E80000EF02FFD049E059F4B463A963B97186047
:100E900059600699079A009B019C3C913D924291B2
:100EA000439248914992409641970A9E0B9F3A007F
:100EB00031004C914D9252915392082252429446E5
:100EC00038933994089B099C3E933F9444934594EE
:100ED0004A934B94509351940E9B0F9C5693579466
:100EE0004B46469647970C9E0D9F08354E964F975A
:100EF00054965597E1449A45ADD1D3239B009D4428
:100F0000F0BCBB46B246A946A046F0BDB4FCFFFF0C
:100F10000000F03F70B511200BF0F6F9002201211E
:100F200011200BF0C5F9D024802324069B02A36274
:100F300010200BF0E9F90022012110200BF0B8F984
:100F400080235B02A3620B200BF0DEF9002201215B
:100F50000B200BF0ADF980231B01A36209200BF0DD
:100F6000D3F90022012109200BF0A2F980239B0074
:100F7000A36208200BF0C8F90022012108200BF021
:100F800097F980235B00A3620A200BF0BDF90022D1
:100F900001210A200BF08CF98023DB00A3621620CC
:100FA0000BF0B2F90022012116200BF081F9802309
:100FB000DB03A36215200BF0A7F900220121152005
:100FC0000BF076F980239B03A36212200BF09CF9AF
:100FD0000022012112200BF06BF98023DB02A362B7
:100FE00013200BF091F90022012113200BF060F97E
:100FF00080231B03A36214200BF086F90022012139
:1010000014200BF055F980235B03A36205200BF03D
:101010007BF90022012105200BF04AF92023192039
:10102000A3620BF071F91D200BF06EF980239B0475
:10103000636280239B056362042119200BF020F971
:1010400004211D200BF01CF9FF228821424B0125B1
:101050001A665A50414B424A1B6842491B0C1B04FA
:101060001360414B41481A68FF231B0453401B0C7B
:101070003F4A1B0413602A003E4B1B689A433E4BB9
:101080001A602A003D4B1B689A433D4B1A6012F0D0
:10109000A7FF012106200BF0F3F8012107200BF038
:1010A000EFF8012104200BF0EBF818200BF02CF9DD
:1010B00080235B046362172063610BF025F98023B2
:1010C0001B046362636112F06FFF1F211B200BF092
:1010D000D7F8002200211B200BF0EAF800211B208A
:1010E0000BF0FEF81F211A200BF0CAF80022002195
:1010F0001A200BF0DDF800211A200BF0F1F8002087
:101100000BF002F901200BF0FFF802200BF0FCF8C5
:1011100003200BF0F9F80223656263620233636215
:10112000043363620C200BF0EFF880235B016362F1
:101130000D200BF0E9F880239B0163620E200BF079
:10114000E3F88023DB0163620F200BF0DDF88023DE
:101150001B02636270BDC046000005405C00054094
:101160005C100540C0C62D008400054000C003404F
:10117000841005405000054050100540780005409F
:1011800078100540F0B54F464646D646D02001239C
:101190000122C0B50226000644680D78640C1C408C
:1011A00054409D431C402C430C7044680D78240C23
:1011B0001C4054401C40B54364002C4304250C7073
:1011C0004468B146A40C1C400E7854401C40AE4309
:1011D000A40034430C700E784468B4460826674671
:1011E000E40C1C4054401C40B743E4003C434F789F
:1011F000AA46BC464027B846674645460C70446838
:10120000AF43A40D1C4054401C40A4013C434C700F
:101210004D784468AC4620256746640D1C40544018
:101220001C40AF4364013C434C704D784468A84671
:1012300010254746AC46240D1C405440AF431C408B
:101240000D7824013C432F0065464C704468AF4341
:1012500064091C4054404D781C4024013C432F003D
:101260004D460C704468AF43E40A1C4054401C4097
:1012700064003C434C7044684F78640A1C405440FE
:101280001C40B743E4003C434C7044684E78240A49
:101290001C4054409E431C4034434C704068800ABC
:1012A0001840424050461340E2B282439B00134331
:1012B0004B70E0BCBA46B146A846F0BDF0B5474613
:1012C000CE4680B583B06B46DF1D1A4B802599460C
:1012D000D0231B060024984601AEED013C70C046A9
:1012E000C046C04643469D61C046C046C046012236
:1012F0003900114814F000FEC046C046C046012324
:10130000320000210C4814F06FFDC046C046C046B4
:1013100043465D61C046C046C0462100484632781B
:10132000013410F059FB1E2CD8D103B0C0BCB94613
:10133000B046F0BDD85F011000C0034070B582B068
:101340006A46964B1380C046C046C046D0248025CE
:101350002406ED01A561C046C046C046904E02225B
:101360006946300014F0C8FDC046C046C0466561FD
:10137000C046C046C04621236A461380C046C046C8
:10138000C046A561C046C046C0460222694630003C
:1013900014F0B2FDC046C046C0466561C046C046B6
:1013A000C04622236A461380C046C046C046A56197
:1013B000C046C046C04602226946300014F09CFD7B
:1013C000C046C046C0466561C046C046C0462423EC
:1013D0006A46FF331380C046C046C046A561C0467A
:1013E000C046C04602226946300014F085FDC04662
:1013F000C046C0466561C046C046C04624236A4612
:101400001380C046C046C046A561C046C046C0461F
:1014100002226946300014F06FFDC046C046C04647
:101420006561C046C046C0466A465E4B1380C046F2
:10143000C046C046A561C046C046C04602226946B5
:10144000300014F059FDC046C046C0466561C04634
:10145000C046C0466A46544B1380C046C046C0468C
:10146000A561C046C046C04602226946300014F05D
:1014700043FDC046C046C0466561C046C046C04642
:101480006A464A4B1380C046C046C046A561C04666
:10149000C046C04602226946300014F02DFDC04609
:1014A000C046C0466561C046C046C0466A46404B1D
:1014B0000093404B9380C046C046C046A561C046DD
:1014C000C046C04606226946300014F015FDC046ED
:1014D000C046C0466561C046C046C0463C236A4619
:1014E0001380C046C046C046A561C046C046C0463F
:1014F00002226946300014F0FFFCC046C046C046D8
:101500006561C046C046C0463E236A46FF3313802D
:10151000C046C046C046A561C046C046C04602227D
:101520006946300014F0E8FCC046C046C04665611C
:10153000C046C046C0466A461F4B1B781370C04663
:10154000C046C046A561C046C046C04601226946A5
:10155000300014F0D1FCC046C046C0466561C046AC
:10156000C046C04632200BF099FD6A46134B1380EB
:10157000C046C046C046A561C046C046C04602221D
:101580006946300014F0B8FCC046C046C0466561EC
:10159000C046C046C04602B070BDC04620580000DC
:1015A00000C00340251F0000260600002770000031
:1015B000304A414B4B4B0000EC5F0110205A0000B9
:1015C000F0B5DE4657464E464546E0B5030C8FB0B3
:1015D00001936B46040AD972E307DB0F9A46A3070F
:1015E000071CDB0F0093BB07DB0F5B0098460D0A5F
:1015F0000491AC460E0C0D0E4146FB07DB0F0B436E
:101600007907C90F89000B433907C90FC9000B437C
:10161000F906C90F09010B431F21009F05920B40DA
:1016200007AA802113707B00574649420F430421CB
:101630003B430F00082127403B430F001021274068
:101640003B430F00202127403B430F004021274010
:101650003B430C4023435370019B09A993706B4695
:10166000DB7A03901371634653710B00000ED07048
:101670009671D57111CA11C31E00A023337002AB3D
:101680009C462520082260440FF09CFFC046C046BF
:10169000C046D02480252406ED01A561C046C04681
:1016A000C046092231000C4814F026FCC046C04652
:1016B000C0466561C046C046C0468025AD010F20CA
:1016C000002165610BF0D8FCA5610FB0F0BCBB46F2
:1016D000B246A946A046F0BD00C0034084B0F8B5AC
:1016E0004746CE4680B5229F5D9C5E9D239E089016
:1016F00009910A920B93002F00DAE2E0381F0EF0F6
:1017000087F900228D4B0EF0ECF80B0080210200CF
:10171000C90500200EF0AEFDFF2300229B050EF050
:10172000FEF80EF0BDF96061002E00DAE7E0301F30
:101730000EF06EF90022814B0EF0D3F80B008021E1
:101740000200C90500200EF095FDFF2300229B0535
:101750000EF0E5F80EF0A4F981464B462998A361F6
:101760000FF000FD76490FF0A2FC20226946882385
:10177000891860628046C8580FF0F4FC70490FF079
:1017800096FC202269468C238918A062C8580FF065
:10179000E9FC6B490FF08BFC6946202290238A18E4
:1017A000E062D0580FF0DEFC65490FF080FC216844
:1017B0002063081C0FF08FFC6249286060680FF0FE
:1017C0008AFC60496860A0680FF085FC5D49A860EC
:1017D000E0680FF080FC5B49E86020690FF07BFC5B
:1017E00028616069002F02DB57490FF074FC6861C3
:1017F000002E00DA9FE0484653490FF06CFCA861C8
:10180000E06950490FF067FC011CFE2080050FF0D5
:101810004EFC4C49071C206A0FF05DFC011CFE20A9
:1018200080050FF044FC391C061C381C0FF053FCDB
:10183000311CE861301C0FF04EFC2862FE2041464E
:1018400080050FF02EFC0FF0EDFC80223F4BD205FF
:101850000EF010FD0EF024F96862FE20A16A8005EA
:101860000FF01FFC0FF0DEFC8022384BD2050EF08B
:1018700001FD0EF015F9A862FE20E16A80050FF067
:1018800010FC0FF0CFFC8022304BD2050EF0F2FCA2
:101890000EF006F9E862FE20216B80050FF001FCD6
:1018A0000FF0C0FC8022294BD2050EF0E3FC0EF0B5
:1018B000F7F82863C0BCB946B046F8BC08BC04B011
:1018C0001847381D0EF0A4F800221C4B0EF009F842
:1018D0000B0080210200C90500200EF0CBFC002285
:1018E0001B4B0EF01CF802000B00002019490DF0F4
:1018F000E6FF0EF0D5F86061002E00DB17E7301D23
:101900000EF086F800220D4B0DF0EBFF0B0080214E
:101910000200C90500200EF0ADFC00220C4B0DF0BA
:10192000FEFF02000B0000200A490DF0C8FF0EF078
:10193000B7F8814611E74B46AB6161E7000008400C
:10194000000020415555553F9A99993F3333F33F55
:101950000000D03F0000F03FF0B5CE4647460400FF
:1019600080B50027D5B00A200D0016000FF046FF05
:10197000634810F031F80020277109F0FFFA206A5F
:101980002061606109F01CFB606909F04BFB0020DD
:101990006763A76309F0DCFBA06B09F00BFCA06F89
:1019A0009037A066E06609F037FCE06E09F066FC4F
:1019B0009423E058103BE05004339946E050043340
:1019C000E050E051984609F08BFC4B46E05809F096
:1019D000B9FC4346E05809F0E7FCE05909F016FD70
:1019E0002100A22251951031BC2552006846529622
:1019F0000FF0E8FD20686168A268E368FFF76EFEFB
:101A0000AC2360590022E0500433E0500433E0502E
:101A10000433E050002109F0A9FD012200216059A2
:101A200009F0A4FD00220121605909F09FFD012267
:101A30000121605909F09AFDE06A6062A06209F034
:101A400023FBA06A09F052FB206D0023606400288C
:101A500016DD03380DF0DCFFFF2300229B050DF09F
:101A60005EFF0022274B0DF033FF0B0080210200A8
:101A7000C90500200EF0FEFB0DF0E2FF0300606CD4
:101A80000025214AD826136009F0F2FC0020E56504
:101A900009F020FDE423E058103BE0500021A05164
:101AA0000AF0B8FAA05901210AF0B4FAF823E05874
:101AB0001436103BE0500021A0510AF003FBA0595E
:101AC00001210AF0FFFA8423104A5B000020D55060
:101AD00000260AF041FB0024F5B221000022280074
:101AE00001340AF003FA042CF7D10136042EF2D1A6
:101AF00000200AF0BDFB55B0C0BCB946B046F0BDF1
:101B0000F05F011000001C40103F0020B8210020B1
:101B1000F0B5DE4657464E4645469146E0B58FB095
:101B200005680490E4489C460068E44A0B90E44849
:101B30000E00006805910C904846116810606246DE
:101B4000E04B199C3668A0461C681A60009201940C
:101B5000039506960A910FF0A4FADB4F83463D6881
:101B60000199386000980FF09CFAD84E824634688C
:101B7000291C3060099058460FF096FAFC2189051F
:101B80000FF0A9FA211C071C50460FF08DFAFC211A
:101B900089050FF0A0FA291C079058460FF081FA2A
:101BA000211C061C50460FF07CFA44460890206821
:101BB0000FF038FB04000D00484649460FF08BFA41
:101BC000009A8246111C101C0FF085FA011C504629
:101BD0000FF06AFA0FF026FB02000B00200029002C
:101BE00014F0AAF922002B000DF07BFE0DF058FF37
:101BF0008246011C0FF06FFA51460FF06CFA02900A
:101C0000FE20514680050FF04CFA189A041C936E82
:101C10000D90002B00DC03E14246FE205168800558
:101C20000FF03FFA211C0FF056FA0B990FF053FA00
:101C30005146041C58460FF04EFA011C201C0FF0B0
:101C400033FA0399041C0A980FF02BFA4246D16824
:101C50000FF041FA011C201C0FF026FA964A391C9D
:101C600010608346381C0FF036FA4246D1690FF0F7
:101C700032FA311C041C301C0FF02DFA4246116A56
:101C80000FF029FA011C201C0FF00EFA0FF0CAFA0F
:101C900002000B0000208E4914F04EF90400029857
:101CA0000D000FF0BFFA06000F0022002B000020ED
:101CB00087490DF004FE0DF0F3FE0FF0B3FA3B0080
:101CC000320014F0C9F80DF0EBFE4246041CFE2071
:101CD000516980050FF0E5F959460FF0FCF90399B9
:101CE0000FF0E2F9051CFE20211C80050FF0D9F948
:101CF000011C281C0FF0EFF9211C051C48460FF0B1
:101D0000EAF9011C281C0FF0CFF9049B1860189BFE
:101D1000DB6E002B00DCDDE04346FE209968800589
:101D20000FF0BFF90D990FF0D6F90C990FF0D3F918
:101D30005146041C09980FF0CEF9011C201C0FF02D
:101D4000B3F9069B041C191C01989A460FF0A9F9D7
:101D5000434619690FF0BFF9011C201C0FF0A4F9CC
:101D6000574B814618600798011C0FF0B4F94346A1
:101D7000D9690FF0B0F9041C0898011C0FF0ABF9F9
:101D80004346196A0FF0A7F9011C201C0FF08CF9CB
:101D90000FF048FA02000B0000204D4914F0CCF877
:101DA000060002980F000FF03DFA04000D0032000B
:101DB0003B00002046490DF082FD0DF071FE0FF052
:101DC00031FA22002B0014F047F80DF069FE43466B
:101DD000041CFE20996980050FF063F949460FF055
:101DE0007AF951460FF060F9051CFE20211C800590
:101DF0000FF057F9011C281C0FF06DF9051C009815
:101E0000211C0FF068F9011C281C0FF04DF9059BEF
:101E100018600FB0F0BCBB46B246A946A046F0BD64
:101E2000002B00D1B0E043465B69391C381C9B464F
:101E30000FF051F94346D9690FF04DF9311C041CDC
:101E4000301C0FF048F94346196A0FF044F9011CA1
:101E5000201C0FF029F90FF0E5F902000B0000201B
:101E60001B4914F069F8040002980D000FF0DAF92C
:101E700006000F0022002B00002015490DF01FFD69
:101E80000DF00EFE0FF0CEF932003B0013F0E4FF30
:101E90000DF006FE041CFE20594680050FF001F9E6
:101EA00049460FF018F90399051C58460FF013F92D
:101EB000011C281C14E7C046A435002094350020DE
:101EC000A83500209C35002098350020A035002042
:101ED0000000F03F002B5BD0434607999B69081C2C
:101EE00099460FF0F8F84346D9690FF0F4F80899CD
:101EF000041C081C0FF0EFF84346196A0FF0EBF8CA
:101F0000011C201C0FF0D0F80FF08CF902000B0020
:101F10000020214914F010F8060002980F000FF07D
:101F200081F904000D0032003B0000201A490DF039
:101F3000C6FC0DF0B5FD0FF075F922002B0013F073
:101F40008BFF0DF0ADFD041CFE20494680050FF00F
:101F5000A8F8009E311C0FF0BEF80699051C4846F3
:101F60000FF0B9F8011C281C0FF09EF8051CFE208C
:101F7000211C80050FF095F8011C281C0FF0ABF810
:101F8000211C051C301C3CE74A46049B1A60BEE637
:101F9000059B009A1A603CE70000F03FF0B5DE4672
:101FA000454657464E46E0B585B00393754B0C1C2D
:101FB000196800929846051C0FF073F8724B071CC5
:101FC00019680190201C0FF06CF8704B061C391C2E
:101FD000029018680FF068F8FC2189050FF07BF873
:101FE0006B4B311C071C18680FF05EF8FC2189054B
:101FF0000FF071F8AC230E9A061CD058431E042B28
:1020000000D8B4E0831F092B00D890E000239B4642
:10201000B0230E9AD058431E042B00D8A0E0831F93
:10202000092B00D9AAE003071B1A9B00181A80008D
:102030005530FF300DF0ECFC02000B00002055493C
:102040000DF04FFC0DF02CFD81460F9B391CDB6918
:10205000381C9A460FF03FF851460FF03CF85946AD
:102060000FF039F80FF0DEF802000B0000204949AC
:1020700013F062FF0DF014FD311C071C301C0FF033
:102080002AF851460FF027F849460FF024F80FF0D0
:10209000C9F802000B0000203E4913F04DFF0DF07F
:1020A000FFFC061CFE203C4B391C9A461B68800531
:1020B0009B460EF0F6FF291C0FF00DF8391C8146E7
:1020C00058460FF008F8011C48460EF0EDFF009B43
:1020D000324A1860FE2091461268311C80059346F2
:1020E0000EF0DFFF211C0EF0F6FF311C071C5846D6
:1020F0000EF0F1FF011C381C0EF0D6FF039A1060A1
:1021000042461560204A1460204A0199009B1160E4
:102110001F4A02991B681160524613604B461860B3
:1021200005B0F0BCBB46B246A946A046F0BD0307C9
:102130001B1A9B00181A80005530FF300DF068FC08
:1021400002000B00002013490DF0CBFB0DF0A8FCA2
:10215000B0230E9A8346D058431E042B00D95EE765
:10216000C3061B1A9B00181AC000B93061E7C306EA
:102170001B1A9B00181AC000B930DEE700239946ED
:1021800063E7C04668350020743500206C350020B8
:10219000783500200000F03F6435002070350020C5
:1021A000F0B5DE46454657464E46E0B585B003934A
:1021B000754B0C1C196800929846051C0EF071FFB7
:1021C000724B071C19680190201C0EF06AFF704BBF
:1021D000061C391C029018680EF066FFFC21890568
:1021E0000EF079FF6B4B311C071C18680EF05CFF7A
:1021F000FC2189050EF06FFFB4230E9A061CD058FF
:10220000431E042B00D8B4E0831F092B00D890E0B4
:1022100000239B46B8230E9AD058431E042B00D8A7
:10222000A0E0831F092B00D9AAE003071B1A9B001B
:10223000181A80005530FF300DF0EAFB02000B0049
:10224000002055490DF04DFB0DF02AFC81460F9BF7
:10225000391CDB69381C9A460EF03DFF51460EF0E2
:102260003AFF59460EF037FF0EF0DCFF02000B007C
:102270000020494913F060FE0DF012FC311C071CD0
:10228000301C0EF028FF51460EF025FF49460EF097
:1022900022FF0EF0C7FF02000B0000203E4913F0A2
:1022A0004BFE0DF0FDFB061CFE203C4B391C9A46F4
:1022B0001B6880059B460EF0F4FE291C0EF00BFFF8
:1022C000391C814658460EF006FF011C48460EF0A8
:1022D000EBFE009B324A1860FE2091461268311CCA
:1022E000800593460EF0DDFE211C0EF0F4FE311C3D
:1022F000071C58460EF0EFFE011C381C0EF0D4FEF1
:10230000039A106042461560204A1460204A0199E1
:10231000009B11601F4A02991B68116052461360AE
:102320004B46186005B0F0BCBB46B246A946A04675
:10233000F0BD03071B1A9B00181A80005530FF30B0
:102340000DF066FB02000B00002013490DF0C9FAE6
:102350000DF0A6FBB8230E9A8346D058431E042BDB
:1023600000D95EE7C3061B1A9B00181AC000B930DB
:1023700061E7C3061B1A9B00181AC000B930DEE7DC
:102380000023994663E7C046803500208C35002045
:1023900084350020903500200000F03F7C3500207F
:1023A00088350020F0B5DE4657464E464546E0B536
:1023B000674C95B00A900B912378BFF35B8FDB07D6
:1023C00001D400F0D0FD634B9B460AF055FF00237B
:1023D000994609930893079304938023D0255B04BF
:1023E00080469A4613AC2D0601239C465346E027AF
:1023F0002200D021AB6158480323E14413F0F4FCE0
:102400006178A37822783F014900DB0952023A4003
:102410000B43134352466A61049AF02194469C444C
:102420006346049353462200AB614B48032313F0E9
:10243000DBFC6178A37822784900DB0952023A403C
:102440000B43134352466A61079A802694469C4484
:1024500063463604079322000323D021AE613E4831
:1024600013F0C2FC6178A37822784900DB0952029C
:102470003A400B431343089A6E6194469C4463466A
:1024800022000893F0210323AE61334813F0ACFC23
:102490006278A3785200DB09134322786E615202FE
:1024A00017401F43099B9C46BC44634609930AF0AE
:1024B000E3FEFA225B4692001B68111A41440600B3
:1024C000C31A8B4202D325498B424BD94B469B0002
:1024D0004B44DB004B44F92B20D92821FF2308AAC9
:1024E00052181370C046C046C0468027FF01AF6136
:1024F000C046C046C0461848FE3B11AA12A913F0B8
:102500000BFDC046C046C0466F61C046C046C046CF
:10251000242208AB9B181B789B0601D4B04663E7C6
:102520000F4B2380C046C046C046AF61C046C04680
:10253000C04609482100223A13F0DEFCC046C046DE
:10254000C0466F61C046C046C046B0464CE7C04674
:1025500044300020AC33002000C0034000E1F5050A
:1025600027700000934208D215005E460AF084FEF0
:102570003368C01AA842F9D3B34648460EF0EDFDC1
:10258000E84B804618680EF04DFE0F0006000498D8
:102590000EF0E3FD41460EF08AFD0EF043FE0022F0
:1025A000E14B0DF0BCF932003B000DF0B8F90DF035
:1025B00077FA051C07980EF0D0FD41460EF077FD26
:1025C0000EF030FE0022D84B0DF0A9F932003B008E
:1025D000049605970DF0A3F90DF062FA071C089810
:1025E0000EF0BBFD41460EF062FD0EF01BFE002218
:1025F000CD4B0DF094F9049A059B0DF090F90DF078
:102600004FFA061C09980EF0A8FD41460EF04FFD4A
:102610000EF008FE0022C44B0DF081F9049A059BD0
:102620000DF07DF90DF03CFA82460AF025FE5B467E
:10263000FA211B688900C01A98460CF005FF0EF0BD
:102640008CFDBA4B5A461860FA239B004344136032
:102650000AF012FE5B461B68C01AB54B984201D9BE
:1026600000F07BFC5246B34B291CDA601D605F60B2
:102670009E60281C9B460EF02EFDAF4B814698466F
:10268000011C281C0EF027FD434619680EF023FD9F
:1026900043460490596848460EF01DFD011C0498FD
:1026A0000EF002FD434681469968281C0EF013FD8A
:1026B000011C48460EF0F8FC4346D9680EF0F4FCC5
:1026C000391C0490381C0EF006FD051C011C381C3A
:1026D0000EF001FD434619690EF0FDFC43468146AC
:1026E0005969281C0EF0F7FC011C48460EF0DCFC72
:1026F0004346051C9969381C0EF0EDFC011C281C92
:102700000EF0D2FC4346D9690EF0CEFC311C079086
:10271000301C0EF0E0FC894D071C011C301C0EF033
:10272000DAFC29680EF0D7FC69688146381C0EF087
:10273000D2FC011C48460EF0B7FCA968071C301CEF
:102740000EF0C9FC011C381C0EF0AEFCE9680EF05E
:10275000ABFC5146061C0C9050460EF0BCFC071C0E
:10276000011C50460EF0B7FC29690EF0B4FC6969F3
:102770008146381C0EF0AFFC011C48460EF094FC5C
:10278000A969071C50460EF0A6FC011C381C0EF06F
:102790008BFCE9690EF088FC5946049A079B0A6194
:1027A0004B618E61C8616649664E8946664F6749CE
:1027B0000D900196484600913900FFF7A9F94B4664
:1027C0001868624B39680EAA019600930FAB0E9001
:1027D0000F91FFF7E3FBFE20736A8005191C9946F1
:1027E0000EF05FFC5A4B19689A460EF074FC0E9975
:1027F000071C48460EF06FFC011C381C0EF054FC00
:102800000490FE20B76A8005391C0EF04AFC514A3C
:10281000116891460EF05FFC0F990790381C0EF07E
:102820005AFC011C07980EF03FFC4F465146386099
:10283000049B464F0B6009900D990C9801960097E8
:102840000DAB0CAAFFF7ACFCF26AFE209146424A9F
:10285000424F92463B68366B49468005079308967F
:102860000EF01FFC524611680EF035FC0C99061C48
:1028700048460EF030FC011C301C0EF015FC524690
:10288000061C1060FE20089B8005191C9A460EF05D
:1028900008FC07990EF01FFC514681460D980EF07A
:1028A0001AFC011C48460EF0FFFB00230C96274E35
:1028B000386002962A4E0393376809990197474674
:1028C0000D9011AB049810AA0097FDF743FD01236A
:1028D00003931E4B0D99029333680C98019312AA2F
:1028E00023000095FDF736FD5B461B699A465B4663
:1028F0005B695146181C99460EF0C2FC90235B00A0
:10290000F958041C0EF016FC00282FD0201C0EF0E5
:1029100089FC144A144B0CF0DBFF0DF0C1F8041CC9
:1029200024E0C046A02100200000303F583B00209A
:10293000DC050000E03E0020AC3500201C37002004
:10294000C0330020AC3E0020C4330020B82100205A
:10295000B8330020BC330020B0330020B433002053
:102960000C230020182D4454FB2119409223424689
:102970005B00D158201C0EF0DDFB002800D0E9E2FE
:10298000942342465B00D158201C0EF0D3FB002854
:1029900000D0F9E2962342465B00D058211C0EF08D
:1029A000D7FB002800D0F8E2982342465B00D058BD
:1029B000211C0EF0CDFB002800D0F7E29A234246FE
:1029C0005B00D058211C0EF0C3FB002800D0F0E2C1
:1029D0009C2342465B00D058211C0EF0B9FB002816
:1029E00000D0EFE29E2342465B00D058211C0EF03F
:1029F000AFFB002800D0E8E2A02342465B00D0589D
:102A0000211C0EF0A5FB002800D0E7E2A2234246DD
:102A10005B00D058211C0EF09BFB002800D0E0E2A8
:102A2000A42342465B00D058211C0EF091FB0028E5
:102A300000D0DFE2A62342465B00D058211C0EF0F6
:102A400087FB002800D0D8E2A82342465B00D0587C
:102A5000211C0EF07DFB002800D0D7E2AA234246BD
:102A60005B00D058211C0EF073FB002800D091E2CF
:102A7000AC2342465B00D058211C0EF069FB0028B5
:102A800000D0C9E2AE2342465B00211CD0580EF0B4
:102A90005FFB0F24002800D05DE2E823F04AD05805
:102AA0000EF060FBEF490EF002FB4246A31C1B0137
:102AB000D158061C50460EF00EFB24014444616AB6
:102AC000071C48460EF007FB011C381C0EF0ECFA00
:102AD000311C0EF000FBA16A071C50460EF0FBFAF9
:102AE000E16A804648460EF0F6FA011C40460EF0B8
:102AF000DBFA311C0EF0EFFA5B469B6904909946B5
:102B00005B46DB694946181C98460EF0B9FB9023DA
:102B10005B00E958041C0EF00DFB002809D0201CB6
:102B20000EF080FBD04AD14B0CF0D2FE0CF0B8FF77
:102B3000041C92235B00E958201C0EF0FBFA0028CD
:102B400000D004E294235B00E958201C0EF0F2FA56
:102B5000002800D01BE296235B00E958201C0EF0F1
:102B6000E9FA002800D01BE298235B00E958201CFA
:102B70000EF0E0FA002800D015E29A235B00E95835
:102B8000201C0EF0D7FA002800D015E29C235B0031
:102B9000E958201C0EF0CEFA002800D00FE29E2348
:102BA0005B00E958201C0EF0C5FA002800D00FE2A7
:102BB000A0235B00E958201C0EF0BCFA002800D0CE
:102BC00009E2A2235B00E958201C0EF0B3FA0028AA
:102BD00000D009E2A4235B00E958201C0EF0AAFAF9
:102BE000002800D003E2A6235B00E958201C0EF069
:102BF000A1FA002800D003E2A8235B00E958201CBA
:102C00000EF098FA002800D0FDE1AA235B00E958F5
:102C1000201C0EF08FFA002800D0FAE1AC235B00F4
:102C2000E958201C0EF086FA002800D0F7E1AE2308
:102C30005B00E858211C0EF08BFA0F26002800D00C
:102C400086E1EC23864AD0580EF08CFA85490EF0C6
:102C50002EFAB31C1B01E958041C48460EF03BFA3F
:102C60003301ED18696A824640460EF034FA011CC1
:102C700050460EF019FA211C0EF02DFAA96A824670
:102C800048460EF028FAE96A814640460EF023FADB
:102C9000011C48460EF008FA211C0EF01CFA061C16
:102CA00010980EF0BFFA02000B000020704913F0DC
:102CB000D3F802000B0000206E4913F03DF90CF030
:102CC000EFFE1090814611980EF0ACFA02000B0056
:102CD0000020674913F0C0F802000B00002065498E
:102CE00013F02AF90CF0DCFE1190804612980EF0D9
:102CF00099FA02000B0000205D4913F0ADF80200C4
:102D00000B0000205B4913F017F90CF0C9FE051CFD
:102D1000129013980EF086FA02000B00002054491E
:102D200013F09AF802000B000020524913F004F946
:102D30000CF0B6FE1390041C381C0EF073FA02005F
:102D40000B0000204A4913F087F802000B00002016
:102D5000484913F0F1F80CF0A3FE5B4618620498A2
:102D60000EF060FA02000B000020414913F074F8E5
:102D700002000B0000203F4913F0DEF80CF090FE3B
:102D80005B46586250460EF04DFA02000B000020E0
:102D9000374913F061F802000B000020354913F0A9
:102DA000CBF80CF07DFE5B469862301C0EF03AFAD0
:102DB00002000B0000202E4913F04EF80B00020019
:102DC0002C49002013F0B8F80CF06AFE5B46D8627C
:102DD0000A9B002B3CD0284948460EF065F9274E47
:102DE000071CB0780EF0BEF9011C381C0EF059F922
:102DF00081460EF017FAD022214B12060CF0F0FD9E
:102E0000002800D099E048461E490EF093F90028AA
:102E100000D092E0184940460EF046F9071CF078C1
:102E20000EF0A0F9011C381C0EF03BF980460EF0A4
:102E3000F9F9D022124B12060CF0D2FD002800D076
:102E400080E040460F490EF075F9002800D079E087
:102E50000B9B002B4DD00849281C0EF025F913E0E0
:102E6000B82100200000C842182D4454FB2119400D
:102E700000405FC000405F400000FF42103700206C
:102E8000CCCCF43F9A9999BE664E051C30790EF071
:102E900069F9011C281C0EF004F9071C0EF0C2F998
:102EA000D022614B12060CF09BFD002840D15F49F7
:102EB000381C0EF03FF900283AD15D49201C0EF075
:102EC000F3F8041C70790EF04DF9011C201C0EF073
:102ED000E8F8051C0EF0A6F9D022534B12060CF0B0
:102EE0007FFD00281FD15149281C0EF023F900282E
:102EF00019D1D0231B065B681B040DD4494E72798F
:102F0000131C802A00D98023DAB27371494B1B78D5
:102F10009B0701D57F32727115B0F0BCBB46B2463B
:102F2000A946A046F0BD201C0EF070F97071E0E7D4
:102F3000281C0EF06BF93071BFE7381C0EF066F9F3
:102F4000B07067E7381C0EF061F9F07080E7012679
:102F5000013E76E60124013C9FE50AF08DF95B46CF
:102F60001860FFF77FFB200011F0D6F8002801D190
:102F7000FFF729FA0AF080F92F4B186020009B46D2
:102F800011F0E6F8FFF721FA0224013C85E502265C
:102F9000013E56E60D24013C7FE50324013C7CE51F
:102FA0000326013E4DE60426013E4AE60424013C88
:102FB00073E50524013C70E50526013E41E6062641
:102FC000013E3EE60624013C67E50724013C64E53A
:102FD0000726013E35E60826013E32E60824013C7C
:102FE0005BE50924013C58E50926013E29E60A264D
:102FF000013E26E60A24013C4FE50B24013C4CE54A
:103000000B26013E1DE60C26013E1AE60C24013C6F
:1030100043E50D26013E14E60E24013C3DE50E2657
:10302000013E0EE610370020CCCCF43F9A9999BEB1
:103030000000FF42A03E0020AC330020F0B5DE4689
:1030400057464E464546E0B585B002900A20914667
:1030500003910EF0D3FB31480EF0BEFC01239A46DB
:103060002F4B002400259B4607E05A464B46A258AA
:103070001A5101350434102D3CD053462B42F4D064
:10308000029B2849043318590EF025F826490EF002
:103090000EF8071C0EF0E2F8039B80460433185923
:1030A00020490EF018F820490EF001F8061C0EF029
:1030B000C3F80190381C0EF0BFF8071C301C0EF04E
:1030C000CDF80199061C40460EF005F88046311CEB
:1030D000381C0EF000F841460EF0D2F80021061C14
:1030E0000EF028F800280CD14B4601351E5104344F
:1030F000102DC2D105B0F0BCBB46B246A946A046D1
:10310000F0BD301C0EF08EF8084B094A0CF0E0FBC5
:103110000CF0C6FC4B461851ABE7C04608600110E6
:1031200018670110DD35FA3E0000C842FB21194046
:10313000182D4454F0B5DE4657464E464546E0B598
:1031400085B0039310AB1B7883468A4600260E9CFD
:103150000292019318E0E8330F9AD0580EF002F86B
:103160009D490DF0A4FF011C071C48460DF0B3FF5C
:10317000029B391C9851281C0DF0ADFF039B985100
:103180000436442E00D103E15B469D59291C281CBE
:103190000DF0A1FF071C011C281C0DF09CFF2168ED
:1031A0000DF099FF61688046381C0DF094FF011CFA
:1031B00040460DF079FFA168071C281C0DF08BFF1D
:1031C000011C381C0DF070FFE1680DF06DFF5346D7
:1031D0009D598046291C281C0DF07DFF071C011CF1
:1031E000281C0DF078FF21690DF075FF616981469B
:1031F000381C0DF070FF011C48460DF055FFA16909
:10320000071C281C0DF067FF011C381C0DF04CFF3B
:10321000E1690DF049FF4146071C0EF031F890239B
:103220005B00E158051C0DF085FF002809D0281C23
:103230000DF0F8FF694A6A4B0CF04AFB0CF030FCC9
:10324000051C92235B00E158281C0DF073FF002839
:1032500000D0A4E094235B00E158281C0DF06AFF25
:10326000002800D09DE096235B00E058291C0DF05B
:103270006FFF002800D096E098235B00E058291CDF
:103280000DF066FF002800D08FE09A235B00E15824
:10329000281C0DF04FFF002800D088E09C235B0025
:1032A000E158281C0DF046FF002800D081E09E2345
:1032B0005B00E158281C0DF03DFF002800D07AE0AB
:1032C000A0235B00E158281C0DF034FF002800D03B
:1032D00073E0A2235B00E158281C0DF02BFF0028AF
:1032E0006DD1A4235B00E158281C0DF023FF0028BA
:1032F00067D1A6235B00E158281C0DF01BFF0028B6
:1033000061D1A8235B00E158281C0DF013FF0028B1
:103310005BD1AA235B00E158281C0DF00BFF0028AD
:1033200055D1AC235B00E158281C0DF003FF0028A9
:103330004FD1AE235B00E158281C0DF0FBFE454247
:1033400045410E35AB1C1B01195940460DF0C3FE1B
:103350002D0165198146696A381C0DF0BCFE011CFF
:1033600048460DF0A1FEA96A814640460DF0B3FE25
:10337000E96A8046381C0DF0AEFE011C40460DF097
:1033800093FE019B051C002B00D1E4E6EC23E3E651
:1033900005B0F0BCBB46B246A946A046F0BD00252C
:1033A000D0E70125CEE70225CCE70325CAE70425AF
:1033B000C8E70525C6E70625C4E70725C2E70825AF
:1033C000C0E70925BEE70A25BCE70B25BAE70C25AF
:1033D000B8E70D25B6E7C0460000C842182D445492
:1033E000FB211940F0B5DE4657464E464546E0B54E
:1033F0008DB0070000900A200D001C0093460A9132
:10340000169E0EF0FBF9A1480EF0E6FA0A200EF027
:10341000F5F99F480EF0E0FA0023179A0A2013608E
:10342000189A1360236033600EF0E8F999480EF0A3
:10343000D3FA04235B429C46179BE3449946189BAE
:103440002A009A465B4616960193169B26000B9718
:103450003C000425170098460292216830680DF060
:1034600023FE43463060396818680DF01DFE434660
:10347000186063680834735143467A6808375A51B4
:10348000019B5B59181C9B460DF0D6FE82490DF03E
:1034900022FE82490DF0F4FE81490DF01CFE8149A7
:1034A0000DF005FE4B46585158460DF0D7FE7A49AF
:1034B0000DF011FE79490DF0E3FE79490DF00BFE98
:1034C00078490DF0F4FD534658514B4658590DF0CC
:1034D000A9FE0CF021FE0CF0E3FA4B46585153467E
:1034E00058590DF09FFE0CF017FE0CF0D9FA534618
:1034F00058510435442DB0D1029B34009A46009BAC
:1035000046461B68002598460393002302930893C0
:103510000793049301930693059309930B9B4746E6
:1035200099460A9B0B949B46169628E04E46019BB3
:10353000019506935346049F1B68BC005C442168B8
:10354000181C98460DF0F6FD002800D13DE15446C8
:1035500007970495029B40469F005F4439680DF031
:10356000F7FD002838D05746029B029508930823A0
:103570009C460235E144E244202D3ED037684B465C
:103580001C680399201C0DF0D5FD002819D0099B5B
:10359000039405930995009A019B94469E00391C5B
:1035A000201C66440DF0D4FD0028BFD1069B009A74
:1035B0009B009958201C0DF0CBFD0028BAD0069531
:1035C000B8E7059B009A9B009958201C0DF0B2FDAE
:1035D0000028E0D00595DEE75A46089B40469B0050
:1035E00099580DF0B5FD0028C1D008239C460895D8
:1035F0000235E144E244202DC0D1A0460B9C039942
:1036000020680DF04EFD059B009D20609B005959E0
:103610000DF047FDB146069B20609B0059590DF007
:1036200040FD4B46206019680DF03BFD4346169E59
:103630002060196830680DF034FD079B0A9D9B00DF
:10364000306059590DF02DFD089B30609B00595991
:103650000DF027FD306039680DF023FD30602068E3
:1036600011490DF024FD206030680F490DF01FFD59
:10367000199B3060013B9B460C4BA146013B042744
:103680000125B2460093041C55E0C046206001109D
:103690004860011060600110945EF03EDA08623FFD
:1036A0000000C842DD35FA3E000040415867011075
:1036B00001234246134267D02C000F260E330E34EE
:1036C0001C404B462E4001340136A400B6009959E7
:1036D00018590DF0E9FCFC2189050DF0FCFC4B4666
:1036E000D8515346995918590DF0DEFCFC21890533
:1036F0000DF0F1FC5346D851179B995918590DF00C
:10370000D3FCFC2189050DF0E6FC179BD851189BD2
:10371000995918590DF0C8FCFC2189050DF0DBFC06
:10372000189B5A46D8510023535501350437112DA3
:1037300032D053461C686B1E98464B461968D859C0
:103740000DF0AFFC5346061C211CD8590DF0A9FC06
:10375000311C041C301C0DF0BEFC211C061C201C5E
:103760000DF0B9FC011C301C0DF09EFC0DF05AFD53
:103770000CF0A2F90CF094F90DF054FD194A1A4B13
:103780000CF018F9002893D15A46009B04375B5D72
:1037900053550135112DCCD10A200EF02FF81348C6
:1037A0000EF01AF90A200EF029F811480EF014F95B
:1037B0000A200EF023F80F480EF00EF90DB0F0BC01
:1037C000BB46B246A946A046F0BD5A46079B4046B6
:1037D0009B0099580DF0AEFC002800D1BAE6079581
:1037E000B8E6C0467B14AE47E17A943F786001109A
:1037F0009C600110C0600110F0B5DE46454657469A
:103800004E46E0B5831E04000D00934689B09B0729
:1038100000D152E103000F220F33D917090F5B18B3
:1038200013405B1A411C0093CB171B0FC9180A40A9
:10383000D31A039300239846009B9F005B46DB59F5
:103840009A46039B50469E005B469B59191C99461D
:103850000DF07EFC002809D048460DF0E3FCA64A96
:10386000A64B0CF035F80CF01BF98146A300EC5880
:10387000AE59201C311CEF5904930DF069FC00284F
:1038800009D0301C0DF0CEFC9B4A9C4B0CF020F86C
:103890000CF006F9061C4346002B00D193E0391CBE
:1038A000201C0DF0FEFB9649051C0DF014FC514642
:1038B0000DF0FAFB211C071C301C0DF0F2FB9149A6
:1038C000061C0DF008FC011C48460DF0EAFB8C4973
:1038D000041C301C0DF0FFFB011C48460DF0E1FB01
:1038E00088490590281C0DF0F6FB51460DF0DCFBD5
:1038F0008046201C0DF096FC04000D00381C0DF0D5
:1039000091FC22002B0012F0A7FA0CF0C9F8061C5B
:1039100040460DF087FC04000D0005980DF082FC78
:1039200022002B0012F008FB0CF0BAF88046011CB4
:10393000301C0DF00DFC002809D040460DF072FC43
:103940006D4A6E4B0BF0C4FF0CF0AAF8804640465F
:10395000311C0DF0EFFB002809D040460DF062FC51
:10396000654A664B0BF0B4FF0CF09AF88046049B56
:10397000301C9C46E3440DF055FC5B4606000F00EE
:1039800018680DF04FFC32003B0012F065FA04009D
:1039900040460D000DF046FC06000F0020002900F7
:1039A0000CF07EF80DF03EFC3B00320012F0C4FA41
:1039B0000CF076F85B46186009B0F0BCBB46B24626
:1039C000A946A046F0BD391C201C0DF06AFB4E49EB
:1039D000051C0DF080FB51460DF066FB211C071CF9
:1039E000301C0DF05EFBFF218905061C0DF073FBFA
:1039F000011C069048460DF054FB4349041C301C42
:103A00000DF069FB011C48460DF04BFBFF210590B2
:103A10008905281C0DF05FFB011C079050460DF036
:103A200043FB0323009A8046134259D13749281C8F
:103A30000DF08EFB002819D03549281C0DF07AFBBB
:103A4000002813D007980DF0EDFBC022314BD205B2
:103A500012F002FA0090019150460DF0E3FB009A3B
:103A6000019B0BF035FF0CF01BF88046039B9B0776
:103A700000D03EE72549301C0DF06AFB002800D13C
:103A800037E72349301C0DF055FB002800D130E703
:103A900006980DF0C7FBC0221E4BD20512F0DCF9D0
:103AA00004000D0048460DF0BDFB22002B000BF07A
:103AB00006FF0BF0F5FF041C1BE703000F220E337B
:103AC000D917090F5B1813405B1A811C0093CB17A1
:103AD0001B0FC9180A40D31A039301239846ABE67B
:103AE000039A134200D004E70849301C0DF030FB64
:103AF000002800D1FDE6C4E7182D4454FB211940ED
:103B00002FDD443F6666A63FFA7E2A3FD9891D3ED7
:103B100087F29A3EC92FD63FF0B5DE4657464E464D
:103B200045468146E0B50A20C3B04C9C8846924683
:103B300001930DF063FEB1480DF04EFF4B46586AFD
:103B40000DF070FB4B461A901B91D96AD8690DF0A5
:103B5000ABFA0DF067FB0022A94B0BF0E0FE4B46E1
:103B60001C901D9118680DF05DFB4B461E901F9137
:103B7000D96BD8680DF098FA0DF054FB0022A04BD9
:103B80000BF0CDFE4B462090219158680DF04AFB7A
:103B9000434622902391586B0DF044FB43462490FA
:103BA0002591D96BD86A0DF07FFA0DF03BFB00220E
:103BB000934B0BF0B4FE43462690279118680DF006
:103BC00031FB434628902991D968D8690DF06CFAE9
:103BD0000DF028FB00228A4B0BF0A1FE43462A90F1
:103BE0002B9158690DF01EFB864D2C902D912822AB
:103BF00029002EA80DF0E6FC2900282238A80DF097
:103C0000E1FC0A200DF0FAFD7F480DF0E5FE0A20E8
:103C10000DF0F4FD7D480DF0DFFE0AAA2EA91AA8CA
:103C2000FCF7FCFF12AA38A924A8FCF7F7FF0A98B2
:103C30000B990BF035FF071C2060129813990BF0BD
:103C40002FFF089020610C980D990BF029FF079029
:103C50006060149815990BF023FF069060610E9830
:103C60000F990BF01DFF0590A060169817990BF0A7
:103C700017FF0490A061109811990BF011FF0390A9
:103C8000E060189819990BF00BFF8346E0611E98CD
:103C90001F990BF005FF011C061C0DF01CFA029089
:103CA000289829990BF0FCFE011C051C0DF013FA55
:103CB00002990990301C0DF00EFA391C0DF00BFA28
:103CC0000799071C02980DF006FA011C381C0DF02C
:103CD000EBF90599071C301C0DF0FDF9011C381C8F
:103CE0000DF0E2F9039E311C0DF0DEF9011C301CD1
:103CF0000DF0D7F9099FE060391C281C0DF0EBF995
:103D000008990DF0E8F90699061C381C0DF0E3F946
:103D1000011C301C0DF0C8F90499061C281C0DF07C
:103D2000DAF9011C301C0DF0BFF959460DF0BCF951
:103D3000011C58460DF0B5F9E0610A200DF05EFD5A
:103D400033480DF049FE0A200DF058FD31480DF0C2
:103D500043FE00254B465E59311C301C0DF0BBF96B
:103D6000071C011C301C0DF0B6F921680DF0B3F9E9
:103D700061688346381C0DF0AEF9011C58460DF001
:103D800093F9A168071C301C0DF0A5F9011C381C23
:103D90000DF08AF9E1680DF087F953465851434612
:103DA0005E59311C301C0DF096F9071C011C301CAB
:103DB0000DF091F921690DF08EF961698346381C87
:103DC0000DF089F9011C58460DF06EF9A169071C28
:103DD000301C0DF080F9011C381C0DF065F9E1690B
:103DE0000DF062F9019B58510435442DB2D143B016
:103DF000F0BCBB46B246A946A046F0BDF860011033
:103E00000000E03FC0650110106101103061011039
:103E10006061011088610110F0B5DE4657464E46DC
:103E20004546026AE0B590460369C26987B004005E
:103E30000D0047694146181C039391460DF04BF95C
:103E4000391C061C48460DF046F9011C301C0DF0CB
:103E500028F9E16862688B46A169019202912168A4
:103E600004900DF038F95946059040460DF033F9AD
:103E700002998246381C0DF02EF9011C50460DF0B7
:103E800010F901990DF027F9011C05980DF009F9B9
:103E90005946824648460DF01EF90299834603981A
:103EA0000DF019F9A668011C58460DF0FAF8311CFE
:103EB0000DF011F9011C50460DF0F6F8011CFE2022
:103EC00080050DF0F4F88246011C04980DF003F90A
:103ED000311C286048460DF0FEF8019981464046A5
:103EE0000DF0F9F8011C48460DF0DBF851460DF0D5
:103EF000F2F868606168381C0DF0EDF82169071C64
:103F0000301C0DF0E8F8011C381C0DF0CAF85146C1
:103F10000DF0E1F8A8606369A169181C99460DF0DD
:103F2000DAF8266AE168071C301C0DF0D4F8011C91
:103F3000381C0DF0B6F851460DF0CDF8E860236856
:103F4000301C9B46A368594698460DF0C4F8A769F3
:103F5000061C391C40460DF0BEF8011C301C0DF04B
:103F6000A0F851460DF0B7F8E6682861311C4046CC
:103F70000DF0B1F85946804648460DF0ACF8011CEA
:103F800040460DF08EF851460DF0A5F86861E369E2
:103F9000301C191C98460DF09EF82169061C381C2F
:103FA0000DF099F8011C301C0DF07BF851460DF016
:103FB00092F8A8616168A0690DF08DF82768061C69
:103FC000391C40460DF087F8011C301C0DF069F8D3
:103FD00051460DF080F8E8612169381C0DF07BF83E
:103FE0006168061CE0680DF076F8011C301C0DF0CD
:103FF00058F851460DF06FF8286207B0F0BCBB4688
:10400000B246A946A046F0BDF0B54E46DE4657463C
:104010004546E0B5A3B089462C990E920F9300292E
:1040200000DC3BE12D9904332131FF3101910393F1
:10403000494601232D9F04328046061D0D1D203761
:10404000029200931BE0201C0DF0ECF8974B984A6D
:104050000BF03EFC0BF024FD019B01C30193009B80
:1040600001330093029A043604320292039A043513
:10407000043203922C9A10379A4200DA0EE12C9BFC
:10408000009A934200D1DDE043461B6810933368E9
:104090001193736812934B461B6813932B68149308
:1040A0006B681593FE239B051693179318930E9B2D
:1040B0001B689B46029B1A685B68924604930F9BA1
:1040C0001B680593039B1A685B680B920C930A208C
:1040D0000DF094FB77480DF07FFC0A200DF08EFB6D
:1040E00075480DF079FC19A910A8FFF795FE1C9BE7
:1040F0001D981F9A1A990693209B09900A200792EF
:104100000A930891199C0DF079FB6C480DF064FC42
:104110000A200DF073FB6A480DF05EFC211C584626
:104120000D940CF0D8FF00210CF0BEFF0699041C82
:1041300050460CF0D0FF011C201C0CF0B5FF079975
:10414000041C04980CF0C7FF011C201C0CF0ACFFF1
:104150000899386058460CF0BEFF00210CF0A4FF0F
:104160000999041C50460CF0B6FF011C201C0CF0F1
:104170009BFF0A99041C04980CF0ADFF011C201C45
:104180000CF092FF0D99786005980CF0A4FF0021C7
:104190000CF08AFF0B9B041C191C06989B460CF024
:1041A0009AFF011C201C0CF07FFF0C9B041C191CA7
:1041B00007989A460CF08FFF011C201C0CF074FF2E
:1041C000B860089905980CF086FF00210CF06CFF90
:1041D0000999041C58460CF07EFF011C201C0CF0B1
:1041E00063FF0A99041C50460CF075FF011C201C4B
:1041F0000CF05AFFF8600A200DF000FB31480DF07A
:10420000EBFB4346306819680CF04BFF4B46041C2F
:10421000196828680CF045FF211C0DF031F8019B4E
:104220002D9A186090235B00D158041C0CF082FF7B
:10423000002800D007E7009B019A01330432009365
:1042400001920FE70A200DF0D9FA1F480DF0C4FBC8
:1042500043461B6810933368119343465B6812937F
:104260004B461B6813932B6814934B465B6815935E
:10427000FE239B051693179318930E9B1A685B6891
:104280009346029A049312680F9B92461A685B68E1
:104290000592039A0C9312680B9218E723B0F0BCB6
:1042A000BB46B246A946A046F0BDC046FB21194018
:1042B000182D4454B4610110C0610110CC6101108B
:1042C000E861011020620110A461011070B51F2582
:1042D000040070200B78AB430B704B7883434B701A
:1042E000FF238B70CB700B714B718B71CB7113787B
:1042F000AB43137053788343537008F0BDFFFA2229
:10430000002392000BF0DEF80500002C09DD08F018
:10431000B3FFFA22002392000BF0D4F8401B844232
:10432000F5DC70BDF8B51D0007000A200C00160072
:104330000DF064FA2E480DF04FFB6B6C581C002FEB
:1043400000D0581EEB6C6864834201DA18006B647D
:10435000AB6C984201DA18006B640023002815DD6D
:1043600003380BF055FBFF2300229B050BF0D7FA17
:104370000022204B0BF0ACFA0B0080210200C90593
:1043800000200BF077FF0BF05BFB03001A4A136071
:104390007F232371686C0CF0E5FE18490CF084FE55
:1043A0000CF034FF1F217022237860718B4323703F
:1043B00063789343637033788B433370737893439C
:1043C000737008F059FFFA22002392000BF07AF87C
:1043D00004000B4E08F050FFFA22002392000BF06D
:1043E00071F8001BB042F5DD686C07F041F8F8BDCC
:1043F0004862011000001C40103F00200000FF42F6
:10440000ED020000F0B5C646804600B50A20D4B0E3
:104410001E000F0015005A9C0DF0F0F93D480DF0FC
:10442000DBFA4346002B57D0012B07D1002F66D172
:10443000E36E626F0133934268DCE366A2222100DF
:104440005C9B520052935B9B1031684651930DF078
:10445000B9F8A268E36861682068FDF73FF9A06ECB
:104460000CF080FE2C490CF01FFE0CF0CFFE2871E2
:10447000E06E0CF077FE28490CF016FE0CF0C6FE3C
:104480001F2170222B7868718B432B706B789343BC
:104490006B7033788B43337073789343737008F089
:1044A000EBFEFA22002392000BF00CF805001B4EE5
:1044B00008F0E2FEFA22002392000BF003F8401B02
:1044C000B042F5DDA06E06F0A7FEE06E06F0D6FE67
:1044D00054B080BCB846F0BD002F06D1A36E626F09
:1044E0000133934208DCA366A8E7012FA6D1A36E8F
:1044F000226F013B9342F6DA1300A3669EE7012F79
:104500009CD1E36E226F013B934296DA1300E3667F
:1045100094E7C046586201100000FF42ED0200001F
:10452000F8B5CE464746804680B50A201C000F00ED
:104530009146089E099D0DF061F95D480DF04CFA19
:104540004346002B11D14B46002F00D06EE0002BCC
:1045500000D083E0AC33E8581433EB580130984274
:1045600000DD83E0AC23E8506CE04B46002F0DD11A
:10457000002B00D086E0B433E8580C33EB58013000
:10458000984200DD86E0B423E8500DE0B822002B0D
:1045900000D083E0C033E958AB5801338B4200DDD3
:1045A00083E0AB50B423E858B8270022012106F07D
:1045B000DDFF01220121E85906F0D8FFB423E858B5
:1045C0000CF0D0FD3B490CF06FFD0CF01FFE20718C
:1045D000E8590CF0C7FD37490CF066FD0CF016FEEB
:1045E0001F217022237860718B4323706378324DD2
:1045F0009343637033788B43337073789343737052
:1046000008F03AFEFA22002392000AF05BFF040051
:1046100008F032FEFA22002392000AF053FF001B3A
:10462000A842F5DDC0BCB946B046F8BDB022002BAB
:1046300020D1C033E958AB5801338B4220DCAB505A
:10464000AC23E858B0270022002106F08FFF01229A
:104650000021E85906F08AFFAC23B0E7AC23E85804
:104660001033EB580138984200DB7BE71800AC238D
:10467000E850E7E7BC23E958AB58013B8B42DEDA50
:104680000B00DCE7B423E8580833EB5801389842B4
:1046900000DB78E71800B423E85085E7BC23E9582D
:1046A000AB58013B8B4200DB7BE70B0079E7C04650
:1046B000786201100000FF42ED020000F0B5C6462E
:1046C00000B50700D4B00A20884615001E005A9C89
:1046D0000DF094F844480DF07FF9002F5BD0012FC6
:1046E0000FD14346002B00D072E08833E258501CB3
:1046F0009822A258E050904201DD1000E25006F0EE
:1047000021FE2100A2225C9B103152935B9B520040
:10471000684651930CF056FFA26861682068E36810
:10472000FCF7DCFF8423E0580CF01CFD2F490CF053
:10473000BBFC0CF06BFD88232871E0580CF012FDD7
:104740002A490CF0B1FC0CF061FD1F2170222B787E
:1047500068718B432B706B7893436B703378244D67
:104760008B43337073789343737008F085FDFA229E
:10477000002392000AF0A6FE040008F07DFDFA2254
:10478000002392000AF09EFE001BA842F5DD54B003
:1047900080BCB846F0BD4346002B0AD18433E258B2
:1047A000501C9822A258E05090420CDC06F098FD74
:1047B000A7E7012BA5D18333E258501E9422A258BB
:1047C000E0509042F2DA1000E25006F089FD98E7DE
:1047D000012B96D18733E258501E9422A258E05004
:1047E000904200DB8BE788E7906201100000FF42F7
:1047F000ED02000070B50400906E15000E000CF084
:10480000B1FC26490CF050FC0CF000FDA070E86EE5
:104810000CF0A8FC21490CF047FC0CF0F7FC8423B9
:10482000E070E8580CF09EFC1C490CF03DFC0CF0CC
:10483000EDFC88232071E8580CF094FC17490CF02B
:1048400033FC0CF0E3FCAC236071EB581F21A37127
:10485000B0237022EB58FA25E3712378ED008B43E7
:10486000237063789343637033788B43337073782A
:104870009343737008F000FDFA22002392000AF0BF
:1048800021FE040008F0F8FCFA22002392000AF04E
:1048900019FE001BA842F5DB70BDC0460000FF42B8
:1048A000F0B5C64600B50700D4B00A20884615000A
:1048B0001E005A9C0CF0A2FF44480DF08DF8002F0A
:1048C0005BD0012F0FD14346002B00D072E0903314
:1048D000E258501C9822A258E050904201DD10008E
:1048E000E25006F093FD2100A2225C9B103152930E
:1048F0005B9B5200684651930CF064FEA2686168AD
:104900002068E368FCF7EAFE8C23E0580CF02AFCF0
:104910002F490CF0C9FB0CF079FC90232871E0586A
:104920000CF020FC2A490CF0BFFB0CF06FFC1F219F
:1049300070222B7868718B432B706B7893436B706C
:104940003378244D8B43337073789343737008F03E
:1049500093FCFA22002392000AF0B4FD040008F050
:104960008BFCFA22002392000AF0ACFD001BA84247
:10497000F5DD54B080BCB846F0BD4346002B0AD1EB
:104980008C33E258501C9822A258E05090420CDC24
:1049900006F00AFDA7E7012BA5D18B33E258501E84
:1049A0009422A258E0509042F2DA1000E25006F051
:1049B000FBFC98E7012B96D18F33E258501E9422CE
:1049C000A258E050904200DB8BE788E7A462011018
:1049D0000000FF42ED020000F0B5C646070000B53A
:1049E0000A20884614001D00069E0CF007FF36487A
:1049F0000CF0F2FF002F44D0012F0CD14346002BC6
:104A000058D1B36B581CF36BB063984201DD1800AA
:104A1000B36306F0CFFB706B0CF0A4FB2B490CF0DA
:104A200043FB0CF0F3FB2071B06B0CF09BFB2749B0
:104A30000CF03AFB0CF0EAFB1F2170222378607126
:104A40008B4323706378934363702B788B432B7075
:104A50006B7893436B7008F00FFCFA2200239200EE
:104A60000AF030FD04001A4D08F006FCFA2200237B
:104A700092000AF027FD001BA842F5DD80BCB84675
:104A8000F0BD4346002B08D1736B581CF36B706369
:104A900098420ADC06F05CFBBDE7012BBBD1736BCF
:104AA000581E336C70639842F4DA1800736306F092
:104AB0004FFBB0E7012BAED1B36B581E336CB06324
:104AC0009842A6DAA3E7C046C06201100000FF4288
:104AD000ED0200008C2370B50400D05815000E00C4
:104AE0000CF040FB25490CF0DFFA0CF08FFB902313
:104AF000A070E8580CF036FB20490CF0D5FA0CF009
:104B000085FBE070686B0CF02DFB1C490CF0CCFAB7
:104B10000CF07CFB2071A86B0CF024FB17490CF007
:104B2000C3FA0CF073FBB4236071EB581F21A3711F
:104B3000B8237022EB58FA25E3712378ED008B43FC
:104B4000237063789343637033788B433370737847
:104B50009343737008F090FBFA22002392000AF04E
:104B6000B1FC040008F088FBFA22002392000AF04E
:104B7000A9FC001BA842F5DB70BDC0460000FF4247
:104B8000F8B5069E14001D00002859D001280FD149
:104B9000002900D072E0D823F258501CE022B2580D
:104BA000F050904201DD1000F250012107F032FA7E
:104BB000D427F0590CF0D6FA36490CF075FA0CF0FF
:104BC00025FBA070F0590CF0CDFA32490CF06CFACC
:104BD0000CF01CFB0437E070F0590CF0C3FA2D49BF
:104BE0000CF062FA0CF012FB2071F0590CF0BAFADA
:104BF00028490CF059FA0CF009FB1F217022237888
:104C000060718B4323706378934363702B788B437D
:104C10002B706B7893436B7008F02EFBFA22002305
:104C200092000AF04FFC04001B4D08F025FBFA220D
:104C3000002392000AF046FC001BA842F5DDF8BDF7
:104C400000290BD1D423F258501CE022B258F05066
:104C500090420DDC002107F0DDF9A9E70129A7D179
:104C6000D423F258501EDC22B258F0509042F1DAB0
:104C700010000021F25007F0CDF999E7012997D1F2
:104C8000D823F258501EDC22B258F050904200DB7C
:104C90008BE788E70000FF42ED020000F8B5069EB2
:104CA00014001D00002859D001280FD1002900D080
:104CB00072E0EC23F258501CF422B258F0509042AB
:104CC00001DD1000F250012107F0FCF9E827F0594E
:104CD0000CF048FA36490CF0E7F90CF097FAA0709E
:104CE000F0590CF03FFA32490CF0DEF90CF08EFA74
:104CF0000437E070F0590CF035FA2D490CF0D4F976
:104D00000CF084FA2071F0590CF02CFA28490CF0C0
:104D1000CBF90CF07BFA1F217022237860718B4352
:104D200023706378934363702B788B432B706B787D
:104D300093436B7008F0A0FAFA22002392000AF065
:104D4000C1FB04001B4D08F097FAFA2200239200E1
:104D50000AF0B8FB001BA842F5DDF8BD00290BD115
:104D6000E823F258501CF422B258F05090420DDC67
:104D7000002107F0A7F9A9E70129A7D1E823F258F4
:104D8000501EF022B258F0509042F1DA100000218B
:104D9000F25007F097F999E7012997D1EC23F258DF
:104DA000501EF022B258F050904200DB8BE788E7AB
:104DB0000000FF42ED02000070B5049D14001E00CB
:104DC000002800D16CE001280BD1002900D17CE043
:104DD000012906D1AB6AEA6A013BAB62934200DA71
:104DE0007AE0686A06F050F9A86A06F07FF96B6A03
:104DF000A371AB6AE371686A632848DDE323A3709B
:104E0000686A0CF0AFF935490CF04EF934490CF0F2
:104E100048F90CF0FBF92071A86A63282EDDE32322
:104E2000E370A86A0CF09EF92C490CF03DF92C496E
:104E30000CF037F90CF0EAF960711F217022237829
:104E40008B43237063789343637033788B43337061
:104E500073789343737008F00FFAFA2200239200DC
:104E60000AF030FB040008F007FAFA22002392004F
:104E70000AF028FB001B6328F5DD70BD0CF072F909
:104E800016490CF011F90CF0C1F96071D5E70CF07E
:104E900069F912490CF008F90CF0B8F92071BBE778
:104EA000002906D16B6A581C2B6B6862984299DD09
:104EB00008E0012995D16B6A581EEB6A6862984236
:104EC00000DB8FE718006B628CE7AB6A2A6B01335B
:104ED000AB62934200DC84E7AA6282E70000FF42F3
:104EE0000000C8420B7910B50C00834206D008714F
:104EF000062839D8204B80001B589F4600230A20E3
:104F00000B710CF07BFC1D480CF066FD207906F05F
:104F100035F810BD0A200CF071FC19480CF05CFD4E
:104F2000F4E70A200CF06AFC16480CF055FDEDE79A
:104F30000A200CF063FC14480CF04EFDE6E70A2052
:104F40000CF05CFC11480CF047FDDFE70A200CF088
:104F500055FC0F480CF040FDD8E70A200CF04EFC41
:104F60000C480CF039FDD1E70A200CF047FC0A4848
:104F70000CF032FDCAE7C04624630110DC62011068
:104F800014630110EC620110F4620110FC62011064
:104F9000046301100C6301101C63011070B515004F
:104FA0001D4A0C00C1008A58002A34D00001153077
:104FB000FF3018189047431E9841434264201F2237
:104FC000184023780C219343237063785132934324
:104FD0006370FF234D3020716071A070E070A37189
:104FE000E3712B788B432B706B7893436B7008F0D5
:104FF00043F9FA22002392000AF064FAFA25040029
:10500000ED0008F039F9FA22002392000AF05AFA6A
:10501000001BA842F5DB70BD543000200300101EB9
:1050200014D1022B5AD026D8002B00D16CE0CB78BB
:105030004E2B0AD84B794E2B07D88B78623B3A2BF4
:1050400003D80B79623B3A2B56D97047022B6CD0B0
:1050500028D8002B5FD0CB7800204E2BF5D84B7989
:105060004E2BF2D88B78623B3A2BEED80B79623B11
:105070003A2BEAD828E0032BE7D18A78AF2AE4D983
:105080000A79AF2AE1D9CA78623A3A2ADDD84A7950
:10509000623A3A2AD9D80A781A40033A53425A4116
:1050A000D0B2D2E70020032BCFD18B780020AF2BDA
:1050B000CBD90B79AF2BC8D9CB78623B3A2BC4D86C
:1050C0004B79623B3A2BC0D80B78DB07BDD54A78C9
:1050D0000F300240531E9A41D0B2B6E78B784E2B68
:1050E000B3D80B794E2BB0D8CB78623B3A2BACD8E7
:1050F0004B79623B3A2BA8D803220B781A40033A2B
:1051000053425A41D0B2A0E7CB78AF2B9DD94B790F
:10511000AF2B9AD991E7CB780020AF2B00D894E73A
:105120004B79AF2B00D890E79CE78B7800204E2B73
:1051300000D98AE70B794E2B00D986E7BCE7C04639
:10514000F8B50D0016001C0000284FD11B69E2695C
:1051500093425EDB206105F033FF606905F062FF7A
:1051600063692269042B5AD07F27042A46D0EF7046
:1051700020690BF0F7FF2F490BF096FFFE21890500
:105180000BF092FF0CF042F86F71A87060690BF0A1
:10519000E9FF28490BF088FFFE2189050BF084FF09
:1051A0000CF034F81F2170222B7828718B432B7060
:1051B0006B7893436B703378FA258B433370737835
:1051C000AD009343737008F057F8FA220023920061
:1051D0000AF078F9040008F04FF8FA220023920050
:1051E0000AF070F9001BA842F5DBF8BD5B69E269C3
:1051F000934210DB002320696361ACE7643F002B1E
:10520000B5D01A3F023B9F429B4163371F401B377B
:10521000ADE7581C9EE70133206963619BE71B27BC
:10522000002AA4D01A3F023A9742924163371740AE
:105230001B379CE70000FF42F0B557464E464546F7
:10524000DE469B467F23E0B58B70CB700B714B71B4
:105250000023170013605A461360E023DB019A46CF
:10526000414B40269946414B5D46984683B0404CA1
:105270000191802322685B015340524613404A4605
:105280001360042243461A60FC3223681342FCD0A8
:1052900060680004000C0AF0BBFB364B00220AF0E9
:1052A0003EFB0AF0FDFB344983460BF043FF00232D
:1052B000002811D158460BF0B5FF02000B0000206A
:1052C000002110F0C9FD0B0002002C49002010F055
:1052D00033FE0AF0B5FB03003A689A4200DA1A007E
:1052E0003A605246236813404A46136004224346FC
:1052F0001A60FC3223681342FCD060680004000C82
:105300000AF086FB1B4B00220AF009FB0AF0C8FBDF
:10531000194983460BF00EFF0023002811D158468F
:105320000BF080FF02000B000020002110F094FD24
:105330000B0002001149002010F0FEFD0AF080FB76
:1053400003002A689A4200DA2B60013E002E90D1B9
:105350000023019A9371D37103B0F0BCBB46B246EF
:10536000A946A046F0BDC04600D0044000E004407D
:1053700000C004400000B03F0000404000E06F402B
:10538000F0B5DE4657464E464546E0B50E009A4615
:105390007E4C0100A544B79B05903000914698468D
:1053A000B69C06F0EFF95346494620CB80C99B4690
:1053B0007C226DA86C978C950CF004F97C225946E0
:1053C0008DA80CF0FFF8012303216DAA01331942C7
:1053D00000D117600432202BF8D1022303218DAABB
:1053E000194200D1156001330432212BF8D1684BEA
:1053F00039AF9B4628AD17AB5A4600938CA906AB34
:105400006CA8039402970195FDF7ECFFB89B06AAE0
:10541000009317AB19001000FEF77EFBB89B2A0023
:105420000193102317A9009306A83B00FEF7ECFD9B
:1054300017AB5A46514648460093039406AB029771
:105440000195FDF7CFFF059B4AAA0293B99B17A9C7
:105450000193B89B06A800935BABFDF76BFE424639
:105460005BA94AA8FDF7EAFD17AB0093424606ABDD
:1054700051464846039402970195FDF7B3FF237800
:10548000002B02D143461B6833606378002B02D1A6
:1054900043465B687360A378002B02D143469B6848
:1054A000B360E378002B02D14346DB68F3602379D5
:1054B000002B02D143461B6933616379002B02D173
:1054C00043465B697361A379002B02D143469B6914
:1054D000B361E379002B02D14346DB69F361237AA0
:1054E000002B02D143461B6A3362637A002B02D140
:1054F00043465B6A7362A37A002B02D143469B6AE0
:10550000B362E37A002B02D14346DB6AF362237B6A
:10551000002B02D143461B6B3363637B002B02D10C
:1055200043465B6B7363A37B002B02D143469B6BAB
:10553000B363E37B002B02D14346DB6BF36317AB12
:105540003200514648460093039406AB02970195FA
:10555000FDF748FFB89B06AA009317AB190010008F
:10556000FEF7DAFAB89B2A000193102317A90093DB
:1055700006A83B00FEF748FDAD239B009D44F0BC10
:10558000BB46B246A946A046F0BDC0464CFDFFFF53
:1055900018670110F0B5DE46454657464E46E0B561
:1055A000D74C1D00A544F6AB80CB04001B78884681
:1055B0009B46914605F0D2FCA3682071984200DB1F
:1055C000CDE200230020012623710233E2688242EB
:1055D00002DA00221E00227105F0E0FCA3692061BE
:1055E000984202DA206A01362061E369834202DAD6
:1055F000236A0136236105F003FDA36960619842C7
:1056000002DA206A01366061E369834202DA236AC2
:105610000136636105F026FD236B6062984200DD70
:105620009AE2E36A984200DA96E205F04DFD236BB8
:10563000A062984200DD8CE2E36A984200DA88E2D8
:1056400005F074FDE36B6063984200DD7DE2236C3E
:10565000984200DA79E205F09BFDE36BA063984283
:1056600000DD6EE2236C984200DA6AE205F0C2FDCA
:10567000236FA066984200DA5FE2636F984200DD14
:105680005BE205F0E9FD236FE066984200DA10E284
:10569000636F984200DD0CE205F010FE982284232F
:1056A000A258E050904200DC0FE29422A25801364A
:1056B000E25005F035FE98228823A258E05090422F
:1056C00000DC12E29422A2580136E25005F05AFEA4
:1056D00098228C23A258E050904200DC15E29422DC
:1056E000A2580136E25005F07FFE98229023A2587E
:1056F000E050904200DC18E29422A2580136E250B9
:105700000021002005F006FFBC22AC23A258E05087
:10571000904200DACAE1C0216158884200DDC5E14B
:105720000121002005F0F6FEBC22B023A258E05073
:10573000904200DAB7E1C022A258904200DDB2E107
:105740000021012005F0E6FEBC22B423A258E0505F
:10575000904200DAA4E1C0216158884200DD9FE157
:105760000121012005F0D6FEBC22B823A258E0504A
:10577000904200DA91E1C0216158884200DD8CE15D
:105780004B46A222210052934346520010316846F4
:1057900051930BF017FFE36820686168A268FBF77C
:1057A0009DFF05F053FEA36C6064984201DA206D02
:1057B0006064E36C834201DA206D6064002300289A
:1057C00015DD03380AF024F9FF2300229B050AF0B7
:1057D000A6F800224B4B0AF07BF80B008021020058
:1057E000C90500200AF046FD0AF02AF90300464ADE
:1057F0009246136005F05CFE002802DB012800DC05
:10580000DCE100230136E36500220021ACA805F0AD
:10581000DBFE01220021CCA805F0D6FE002158A80D
:1058200005F0B0FF54AB03939BAB02938AAB01939B
:1058300079AB58AACCA90093ACA868ABFDF7D2FD10
:105840000A200BF0DBFF314B180098460CF0C4F82F
:1058500079AB68AA190010000095FEF75DF90A20DF
:105860000BF0CCFF2A480CF0B7F8019510259BAB44
:105870008AAA79A968A80095FEF7C6FB0022012133
:10588000ACA805F0A1FE01220121CCA805F09CFEE8
:10589000012158A805F076FF54AB03939BAB02930C
:1058A0008AAB019379AB58AACCA90093ACA868AB9A
:1058B000FDF798FD0A200BF0A1FF40460CF08CF894
:1058C00079AB68AA190010000097FEF725F90A20A5
:1058D0000BF094FF0F480CF07FF801979BAB0095FD
:1058E0008AAA79A968A8FEF78FFB002327009946AA
:1058F0001537FF374B46DBB2984600250CE0C04613
:105900004CFCFFFF00001C40103F002040630110D2
:105910005C630110706301102900404606F0B8FA7C
:10592000AB000135F850042DF6D101239C46E1442B
:105930004B461037042BDDD1002006F047FBE02258
:10594000D423A258E050904200DDA1E0DC22A2580E
:10595000904200DA9CE0012006F038FBE022D823D8
:10596000A258E050904200DD8DE0DC22A258904227
:1059700000DA88E0002006F081FBF422E823A25838
:10598000E050904200DD79E0F022A258904200DA27
:1059900074E0012006F072FBF422EC23A258E050E0
:1059A000904266DCF022A258904262DB06F0F8FBDF
:1059B0008222FC235200A258E050904255DC802203
:1059C0005200A258904250DB06F0B0FB84228621A0
:1059D0007B4B520098504900A35861588B4202DA21
:1059E00000230136A35088225200A2589A4204DABA
:1059F000842300225B00E250013606F0ADFA431C1E
:105A000000D1AFE01C2826D10A200BF0F7FE6D482C
:105A10000BF0E2FF842300228021E8205B00E250AB
:105A2000F832A258243B49006158E3582250043010
:105A30002250D422A3500432A350FC23E238E15078
:105A40000BF0DCFE60480BF0C7FF1D2006F09AFA51
:105A5000584606F00DFC3000ED239B009D44F0BC41
:105A6000BB46B246A946A046F0BD00220136E25030
:105A7000AAE7F822A2580136E25097E7F822A25886
:105A80000136E25085E7E422A2580136E25071E780
:105A9000E422A2580136E2505DE7E25001366FE69B
:105AA000E25001365CE6E250013649E6E25001364A
:105AB00036E6A36F0136E36605F000FC98228423E6
:105AC000A258E050904200DDEFE59422A2589042A7
:105AD00000DBEEE5E25005F023FC98228823A25873
